:020000040800F2
:10000000B0D301205D0200080D780008114E0008F1
:10001000DD730008AD0B00083D90000800000000F3
:100020000000000000000000000000009D0100082A
:10003000A110000800000000F9010008E57E00089A
:100040008102000881020008810200088102000884
:100050008102000881020008810200088102000874
:10006000810200088102000881020008DD0D0008FD
:10007000ED0D0008FD0D00080D0E00081D0E000816
:100080002D0E00083D0E00088102000881020008C4
:10009000810200088102000881020008411C00085A
:1000A0000D7F00081D7F0008810200088102000802
:1000B0002D7F00083D7F00084D7F00088102000869
:1000C0008102000881020008810200088102000804
:1000D000810200081D8D00089D8D00081D8E0008FE
:1000E000810200088102000881020008AD7F00083B
:1000F000BD7F000881020008810200084D0E000843
:1001000081020008810200085D7F0008810200086A
:1001100035860008B58600086D7F00087D7F0008E1
:10012000810200085D0E00086D0E000881020008C3
:100130008102000881020008810200088102000893
:100140008102000881020008810200088102000883
:10015000810200087D0E00088D0E00089D8E0008AB
:100160008102000881020008810200088102000863
:1001700081020008810200088102000800000000DE
:100180008102000881020008DFF80CD000F020FC9A
:1001900000480047B1CA0008B0D301202C4B1968B1
:1001A0000868B0E8F04F80F30988BFF36F8F4FF015
:1001B000000080F3118870470000000008480068C4
:1001C000006880F308884FF0000080F3148862B65E
:1001D00061B6BFF34F8FBFF36F8F00DF00BF00BF6B
:1001E00008ED00E0DFF80C00016841F470010160E7
:1001F000704700BF88ED00E0EFF30980BFF36F8F19
:10020000134B1A681EF0100F08BF20ED108A20E96A
:10021000F04F106009B44FF0500080F31188BFF325
:100220004F8FBFF36F8F0EF03FF94FF0000080F358
:10023000118809BC19680868B0E8F04F1EF0100F6B
:1002400008BFB0EC108A80F30988BFF36F8F704746
:1002500064020020EFF30580704700000948016840
:1002600041F4700101600848804708480047FEE7F4
:10027000FEE7FEE7FEE7FEE7FEE7FEE7FEE7FEE756
:10028000FEE7000088ED00E0F97E00088901000823
:100290002DE9F05F0546002092469B4688460646BB
:1002A000814640241BE0284641464746224600F04E
:1002B00065FA53465A46C01A914110D31146184662
:1002C000224600F04CFA2D1A67EB01084F462246F1
:1002D0000120002100F043FA17EB00094E41201ED7
:1002E000A4F10104DFDC484631462A464346BDE816
:1002F000F09F40EA01039B0703D009E008C9121FE1
:1003000008C0042AFAD203E011F8013B00F8013BCF
:10031000521EF9D27047D2B201E000F8012B491EFB
:10032000FBD270470022F6E710B513460A46044692
:100330001946FFF7F0FF204610BD2DE9FE4F80461D
:1003400081EA0300C00F0C46009021F0004123F029
:100350000045B8EB0200A94105D24046214690462F
:100360001C460B46024623F00040104347D0270DA1
:10037000C7F30A00C3F30A510290401A01904028C3
:100380006BDAC3F3130040F4801B0098924620B14F
:100390000023D2EB030A63EB0B0B01985946C0F123
:1003A0004002504600F0DBF906460D4650465946DD
:1003B000019A00F0F3F910EB08006141002487EA8C
:1003C000115284EAE7731A4340D0009A62B3019A4B
:1003D000012A4FEA075215DC001B61EB02014FF0C6
:1003E000004202EA0752CDE90042001C41F58011AB
:1003F00032462B4600F02AFA03B0BDE8F08F4046A3
:100400002146F9E7001B61EB0201001C41F5801356
:1004100000185B412018A2F5001747EB030140EAE2
:10042000D570B6196D4111E06D084FEA360645EA00
:10043000C0754FEA0752001B61EB0201001C41F539
:10044000801149084FEA30000019514132462B46CD
:1004500003B0BDE8F04F00F0EAB900980122400077
:100460000023D0EB020263EBE073009821464FEAD1
:10047000E074B8EB000061EB0401E9E783F00043AE
:100480005BE781F0004158E72DE9FE4F81EA030464
:1004900004F0004421F0004100944FF0000B23F0E1
:1004A000004350EA01045ED052EA03045BD0C3F378
:1004B0000A54C1F30A552C44A4F2F3340194A0FB6E
:1004C0000254C1F3130141F48011C3F3130343F445
:1004D000801301FB024400FB034E840A970A44EA9E
:1004E000815447EA8357A4FB076802958D0A05FBF0
:1004F00007854FEA932C04FB0C542705029D4FEA15
:10050000065847EA1637B5EB08056EEB070C870E61
:10051000920E47EA811742EA8312A7FB0201B6EB6B
:100520000B0164EB00042B0D43EA0C335E1844EB23
:100530001C50DA465146E7FB0201C5F313044FEAAB
:100540000B3343EA14534FEA0432019C43EA060397
:10055000A4F10C040294009CCDE900B400F076F9FB
:1005600003B0BDE8F08F00200146F9E72DE9F04D1A
:1005700081EA030404F0004B21F0004514464FF0DB
:10058000000A23F0004150EA050220D054EA01029B
:100590001DD0C5F30A570246C5F31303C1F3130078
:1005A000C1F30A5640F4801543F48013A7EB060804
:1005B000101BD64608F2FD3873EB050002D308F194
:1005C000010801E092185B41B8F1000F03DA002046
:1005D0000146BDE8F08D00204FF4801106468446A8
:1005E0000EE0171B73EB050705D3121B63EB050326
:1005F00006434CEA010C49084FEA300092185B416F
:1006000050EA0107EDD152EA030012D082EA040059
:1006100083EA0501084305D0101BAB4106D2012235
:10062000002306E000224FF0004302E06FF00102D9
:1006300053101AEB06004CEB085110EB0A0041EB8B
:100640000B01BDE8F04D00F0F2B80EB540F23341B9
:1006500002910021CDE900110A460B4600F0F6F8A0
:1006600003B000BD70B5C1F30A5201F0004500248B
:10067000C1F3130140F2FF3341F480119A4201DAD1
:10068000002070BD40F233439A42A2F2334203DCB1
:10069000524200F073F800E090402C43F1D0404209
:1006A00070BDC1F30A5210B5C1F3130140F2FF331C
:1006B00041F480119A4201DA002010BD40F2334328
:1006C0009A42A2F2334203DC524200F057F810BDC6
:1006D000904010BD00F0004230F000400AD0C10D43
:1006E00001F56071C0F3160042EA0151C2084007EB
:1006F0001143704700200146704701F0004330B4B9
:1007000021F0004150EA010206D00A0DA2F5607204
:10071000C1F31301002A02DC30BC00207047440FF3
:1007200044EAC104C100E01830BC00EBC25000F044
:1007300047B830B50B46014600202022012409E0CD
:1007400021FA02F59D4205D303FA02F5491B04FA8A
:1007500002F52844151EA2F10102F1DC30BD202A69
:1007600004DB203A00FA02F1002070479140C2F108
:10077000200320FA03F3194390407047202A04DB3A
:10078000203A21FA02F00021704721FA02F3D0400A
:10079000C2F120029140084319467047202A06DB27
:1007A000CB17203A41FA02F043EAE07306E041FA3F
:1007B00002F3D040C2F1200291400843194670472D
:1007C0000029A8BF7047401C490008BF20F0010065
:1007D000704710B4B0FA80FC00FA0CF050EA010443
:1007E00004BF10BC704749B1CCF1200421FA04F4D5
:1007F00011FA0CF118BF012121430843A3EB0C01AE
:10080000CB1D4FEA00614FEA102042BF002010BC10
:10081000704700EBC35010440029A4BF10BC7047C0
:10082000401C490008BF20F0010010BC704710B503
:10083000141E73F1000408DA401C41F10001921803
:100840005B411A4301D120F0010010BD2DE9F04DAC
:1008500092469B4611B1B1FA81F202E0B0FA80F201
:1008600020329046FFF77BFF04460F4640EA0A001D
:1008700041EA0B0153465A46084313D0114653EA46
:10088000010019D0C8F140025046FFF777FF054636
:100890000E46504659464246FFF761FF084305D0D1
:1008A000012004E020463946BDE8F08D00200543D4
:1008B00046EAE0762C4337430A986305E40AA0EB46
:1008C00008000022FD0A44EA47540A3002D50020FD
:1008D0000146E9E7010510196941DDE908450019FC
:1008E0006941BDE8F04DA2E72DE9F041054621F050
:1008F00000400C46284309D0C4F30A5040F233416B
:10090000884205DD28462146BDE8F0812846FBE700
:1009100040F2FE31884210DC0CDB4FEA043040EA42
:10092000155050EA053105D0104804F0004101434C
:100930000020E9E700200146E6E7A0F23340464206
:10094000C6F1400228462146FFF709FF07468846C0
:10095000284621463246FFF711FF43463A46FFF745
:1009600066FF3246BDE8F041FFF7F9BE0000F03FF8
:1009700030B5041E71F1000404DB4FF00044404226
:1009800064EB0101141E73F1000405DB1C464FF0FB
:100990000043524263EB04038B4208BF824230BDE6
:1009A00030B5041E71F1000404DB4FF000444042F6
:1009B00064EB0101141E73F1000405DB1C464FF0CB
:1009C0000043524263EB0403994208BF904230BD9A
:1009D000064C074D06E0E06840F0010394E807008C
:1009E00098471034AC42F6D3FFF7D2FB64F6000808
:1009F00084F6000870B58C1810F8015B15F0070339
:100A000001D110F8013B2A1106D110F8012B03E0A7
:100A100010F8016B01F8016B5B1EF9D12B0705D4AF
:100A20000023521E0DD401F8013BFAE710F8013BF8
:100A3000CB1A921C03E013F8015B01F8015B521E14
:100A4000F9D5A142D8D3002070BD000055494A68AD
:100A500022F440324A604A6843681A434A60026896
:100A6000526822F4807203685A600268536802690F
:100A700043EA022203685A600268526822F0407218
:100A800003685A600268526883681A4303685A60B0
:100A90000268926822F4006203689A6002689268B1
:100AA000C3681A4303689A603F4B826A9A4218D01F
:100AB0000268926822F0706203689A600268926825
:100AC000836A1A4303689A600268926822F040526F
:100AD00003689A6002689268C36A1A4303689A605E
:100AE0000BE00268926822F0706203689A60026804
:100AF000926822F0405203689A600268926822F07D
:100B0000020203689A6002689368027E43EA420226
:100B100003689A602022125CA2B10268526842F413
:100B2000006203685A600268526822F460420368F7
:100B30005A6002685368426A521E43EA42320368AE
:100B40005A6005E00268526822F4006203685A6045
:100B50000268D26A22F470020368DA620268D36A19
:100B6000828B521E43EA02520368DA62026892687C
:100B700022F4007203689A600268936890F830204B
:100B800043EA422203689A600268926822F4806213
:100B900003689A6002689368426943EA82220368A4
:100BA0009A607047002301400100000F00BFFEE77C
:100BB00010B50446072C53D2DFE804F05204111E8E
:100BC0002B384500FF212848FFF7ACFB00202749C0
:100BD0000880FF222449264803F0AAFE41E0FF21B5
:100BE0002448FFF79FFB002023490880FF2221496A
:100BF000224803F09DFE34E0FF212148FFF792FBDD
:100C0000002020490880FF221D491F4803F090FE64
:100C100027E0FF211D48FFF785FB00201C490880C5
:100C2000FF221A491B4803F083FE1AE0FF211A48ED
:100C3000FFF778FB002019490880FF221649184861
:100C400003F076FE0DE0FF211648FFF76BFB002056
:100C500015490880FF221349144803F069FE00E09B
:100C600000BF00BF10BD0000E620002030020020C1
:100C700030190020E52100203402002074190020E2
:100C8000E422002038020020B8190020E81E0020CD
:100C900028020020FC190020E71F00202C02002061
:100CA000401A0020E32300203C020020841A002088
:100CB0002DE9F04106460D461446072E72D2DFE8B4
:100CC00006F0710416283A4C5E0038480088A042AD
:100CD00001DAFF2000E0204607463A46344928461C
:100CE000FFF707FBA74201DA2020E8555BE0314817
:100CF0000088A04201DAFF2000E0204607463A467D
:100D00002D492846FFF7F5FAA74201DA2020E855D9
:100D100049E02A480088A04201DAFF2000E020468E
:100D200007463A4626492846FFF7E3FAA74201DA82
:100D30002020E85537E023480088A04201DAFF2050
:100D400000E0204607463A461F492846FFF7D1FAF9
:100D5000A74201DA2020E85525E01C480088A0427F
:100D600001DAFF2000E0204607463A4618492846A7
:100D7000FFF7BFFAA74201DA2020E85513E0154833
:100D80000088A04201DAFF2000E0204607463A46EC
:100D900011492846FFF7ADFAA74201DA2020E855AD
:100DA00001E0FFE700BF00BFBDE8F0813002002096
:100DB000E620002034020020E52100203802002037
:100DC000E422002028020020E81E00202C0200203F
:100DD000E71F00203C020020E323002010B502485A
:100DE00001F056FA10BD0000C81D002010B50248E1
:100DF00001F04EFA10BD0000481C002010B502485A
:100E000001F046FA10BD0000081D002010B5024890
:100E100001F03EFA10BD0000A81C002010B50248E9
:100E200001F036FA10BD0000681D002010B5024820
:100E300001F02EFA10BD0000881B002010B50248FA
:100E400001F026FA10BD0000E81B002010B5024892
:100E500001F01EFA10BD0000281E002010B5024847
:100E600001F016FA10BD0000881E002010B50248DF
:100E700001F00EFA10BD0000C81A002010B502489B
:100E800001F006FA10BD00007425002010B50248DC
:100E900001F0FEF910BD0000281B00200146087873
:100EA00010381823B0FBF3F20848805CC865032AA9
:100EB00005D908686FF30900001D886503E008681C
:100EC0006FF309008865886D7047000036F60008EA
:100ED000014600208A6A8B69CBB932B1012A0DD054
:100EE000022A03D0032A10D10EE000BFCB6A03F020
:100EF0008073B3F1807F00D1012007E0CB6AB3F1AA
:100F0000C07F00D1012001E000E000BF34E08B6928
:100F1000B3F5005F1AD132B1012A07D0022A03D0FB
:100F2000032A11D10AE000BF01200EE0CB6A03F0D2
:100F30008073B3F1807F00D1012006E0CB6AB3F16A
:100F4000C07F00D1012000E000BF15E032B1012ACE
:100F500005D0022A04D0032A0CD103E000BF00BF51
:100F6000012008E0CB6A03F08073B3F1807F00D1E9
:100F7000012000E000BF00BF704730B5046824685E
:100F800024F4802405682C60046863608468402C25
:100F900004D10468A2600468E16003E00468A16011
:100FA0000468E26030BD000040F2DC500DF046F90C
:100FB00000BF00F0ADFC38B135480078401EC0B22B
:100FC000334908700028F4D13148007810B101206D
:100FD00030490875A72140F2E73007F0B1FA56E032
:100FE0002D480088401C2C4908802C480078401C63
:100FF0002A4908702748008A27490988884238DA30
:101000000020254908802348008807282FD2DFE8E0
:1010100000F02E040B12192027001E4901224868F7
:10102000114606F03FFB23E01A490222886801219D
:1010300006F0D6F91CE0174988890322012106F041
:1010400083FA15E0134900224868114606F02AFB8E
:101050000EE0104900228868114606F0C1F907E049
:101060000C4988890022114606F06EFA00E000BFA4
:1010700000BF0848807B09490978884204DA0020CB
:101080000649087000F088FC01200DF0D7F8A7E7AA
:101090005C010020240000205A0100205D01002096
:1010A000704700003148007800285DD13048C07892
:1010B000012804D12F4908702F49087054E02C48AA
:1010C000C078022806D101202A49087002202A4946
:1010D000087049E02648C078032806D10120254938
:1010E00008700320244908703EE02148C078042895
:1010F00006D101201F49087006201F49087033E0FF
:101100001B48C078052806D101201A49087007201D
:101110001949087028E01648C078062806D1012031
:10112000144908700820144908701DE01048C07860
:10113000072806D101200F49087009200E490870C0
:1011400012E00B484078012805D10A4908700420B4
:101150000949087008E006488078012804D105494B
:10116000087005200449087070470000AC01002099
:10117000A8010020AD010020B201002010B55148A7
:10118000007830B101281AD0022835D003286ED15A
:101190008FE04D48007888B100204B49087001204D
:1011A000484908700620FFF703FD002047490870F2
:1011B000FF214748FFF7B6F805F0B0FF80E043484D
:1011C0000078012811D043480078401EC0B2414940
:1011D000087050B10846007868B9FF2008700020F8
:1011E000384908703849087005E00020394908700E
:1011F00002203449087063E037480088002844D052
:10120000FF2233490620FFF753FD33480188304859
:101210000CF025FC90B900202B490870FF212C48C8
:10122000FFF780F800202D4908800620FFF7C0FC5A
:1012300008F08CFC00202349087039E02848007829
:10124000401C2749087008460078032810DB00205E
:101250000870FF211E48FFF765F800201A49087042
:101260000A202049C87004204870887003E026E0F6
:101270000120154908700020184908800620FFF752
:1012800097FC00200F49087012E014480088401CA9
:101290001249088008460088642809DB002008807D
:1012A00009201049C87003204870887005490870EB
:1012B00006E00020044908700249087000E000BF01
:1012C00000BF10BDAC010020AD0100203E02002097
:1012D000F0130020B30100203C020020AE010020EA
:1012E000B0010020A801002010B5F849086805F0F9
:1012F00009FF0A200CF0A2FF0C22F549042008F097
:101300008FF80A200CF09AFFF248807B09286ED2F1
:10131000DFE800F06D05396EA2D6FEFDFC0042F25A
:101320001070EC49486008464068EB4948600A2064
:101330000CF084FF0C22E949042008F071F842F215
:101340001070E449886008468068E34988600A2094
:101350000CF074FF0C22E149042008F061F84FF40E
:10136000FA70DC49888108468089DB4988810A2037
:101370000CF064FF0C22D949042008F051F80A202F
:101380000CF05CFF6DE144F62060D24948600846ED
:101390004068D14948600A200CF050FF0C22D04927
:1013A000042008F03DF844F62060CA4988600846E9
:1013B0008068C94988600A200CF040FF0C22C849A7
:1013C000042008F02DF84FF46170C2498881084666
:1013D0008089C14988810A200CF030FF0C22C04965
:1013E000042008F01DF80A200CF028FF39E137E14D
:1013F00047F23050B749486008464068B6494860EF
:101400000A200CF01BFF0C22B649042008F008F853
:1014100047F23050AF49886008468068AE4988601E
:101420000A200CF00BFF0C22AE49042007F0F8FF55
:1014300040F21450A749888108468089A6498881CE
:101440000A200CF0FBFE0C22A649042007F0E8FF5E
:101450000A200CF0F3FE04E149F640409D49486043
:10146000084640689C4948600A200CF0E7FE0C22C0
:101470009D49042007F0D4FF49F640409549886013
:1014800008468068944988600A200CF0D7FE0C2238
:101490009549042007F0C4FF40F2A4608D4988817B
:1014A000084680898C4988810A200CF0C7FE0C22EE
:1014B0008D49042007F0B4FF0A200CF0BFFED0E0F5
:1014C0004CF2503083494860084640688249486081
:1014D0000A200CF0B3FE0C228449042007F0A0FF80
:1014E0004CF250307B498860084680687A498860B1
:1014F0000A200CF0A3FE0C227C49042007F090FF88
:1015000040F6340073498881084602E076E043E003
:101510000EE08089704988810A200CF08FFE0C2231
:101520007249042007F07CFF0A200CF087FE98E047
:101530004EF6602067494860084640686649486042
:101540000A200CF07BFE0C226949042007F068FF9A
:101550004EF660205F498860084680685E49886072
:101560000A200CF06BFE0C226149042007F058FFA2
:1015700040F6C410574988810846808956498881B9
:101580000A200CF05BFE0C225949042007F048FFAA
:101590000A200CF053FE64E056484E494860084665
:1015A00040684D4948600A200CF048FE0C22524920
:1015B000042007F035FF4F48464988600846806898
:1015C000454988600A200CF039FE0C224A49042063
:1015D00007F026FF40F6B8303E49888108468089EA
:1015E0003D4988810A200CF029FE0C224249042042
:1015F00007F016FF0A200CF021FE32E03F48354983
:10160000486008464068344948600A200CF016FEDD
:101610000C223B49042007F003FF38482D4988601D
:10162000084680682C4988600A200CF007FE0C22CE
:101630003349042007F0F4FE40F6AC502549888178
:1016400008468089244988810A200CF0F7FD0C2285
:101650002B49042007F0E4FE0A200CF0EFFD00E027
:1016600000BF00BF1B480078012804D0022851D0D9
:10167000032876D176E00C222249042007F0D0FE20
:101680000A200CF0DBFD0C221F49042007F0C8FEE5
:101690000A200CF0D3FD0C221C49042007F0C0FEE8
:1016A0000A200CF0CBFD0C221949042007F0B8FEEB
:1016B0000A200CF0C3FD084805214268002008F00C
:1016C0002FFB0A200CF0BAFD74E00000BC010020E2
:1016D000A0F50008680100202400002060F3000845
:1016E0006CF3000878F3000884F3000890F3000816
:1016F0009CF3000870110100A8F30008F824010011
:10170000B4F3000824F300083CF3000818F30008C1
:10171000EBF200080C226C49042007F081FE0A203D
:101720000CF08CFD0C226949042007F079FE0A2098
:101730000CF084FD0C226649042007F071FE0A209B
:101740000CF07CFD0C226349042007F069FE0A209E
:101750000CF074FD604805218268002008F0E0FA72
:1017600028E026E00C225D49042007F059FE0A20FB
:101770000CF064FD0C225A49042007F051FE0A20A7
:101780000CF05CFD0C225749042007F049FE0A20AA
:101790000CF054FD0C225449042007F041FE0A20AD
:1017A0000CF04CFD4C4882890521002008F0B8FA65
:1017B00000E000BF00BF4D48007E4C4988750846D8
:1017C000807D08287DD2DFE800F07C0415263748AC
:1017D000596A0C224649042007F022FE012045499F
:1017E00088704FF4FA700CF029FD4048007E4149A2
:1017F000C87067E00C224049042007F011FE012068
:101800003C4988704FF4FA700CF018FD3748007EA0
:101810003849C87056E00C223849042007F000FE11
:101820000120344988704FF4FA700CF007FD2F48FE
:10183000007E3049C87045E00C223149042007F091
:10184000EFFD01202B4988704FF4FA700CF0F6FC84
:101850002648007E2749C87034E00C22294904201C
:1018600007F0DEFD0120234988704FF4FA700CF078
:10187000E5FC1E48007E1F49C87023E00C22224967
:10188000042007F0CDFD01201A4988704FF4FA704A
:101890000CF0D4FC1548007E1649C87012E00C22EA
:1018A0001A49042007F0BCFD0120124988704FF44A
:1018B000FA700CF0C3FC0D48007E0E49C87001E0C0
:1018C000FFE700BF00BF10BD30F300083CF3000885
:1018D0000CF30008EBF200082400002024F30008B9
:1018E00048F3000818F30008F7F20008BC010020D4
:1018F00008F40008A801002014F4000820F40008EF
:101900002CF4000838F4000844F4000850F40008EF
:1019100010B501244FF4E13007F0F8FB14200CF06F
:101920008DFCFF211948FEF7FDFC12221849022008
:1019300007F076FDC8200CF081FC16480088F8B14D
:10194000FF2212490220FFF7B3F9104800788328DC
:101950000DD10E4840790C2809D10C48C07C3128A3
:1019600005D10024FF210948FEF7DCFC04E0012436
:10197000FF210648FEF7D6FC0220FFF719F903E025
:101980000220FFF715F90124204610BD5800002061
:10199000460000203402002010B52DED048B9B483A
:1019A000007830B101280ED002282BD0032877D13F
:1019B00016E19748007828B1002095490870012069
:1019C000924908701EE193480078012811D092488E
:1019D0000078401EC0B29049087050B108460078A7
:1019E00078B9FF200870002088490870884908707D
:1019F00007E0002088490870864908700220834962
:101A00000870FFE085480088002873D0FF228449D1
:101A10000220FFF74DF98148018881480BF0D1F889
:101A2000002868D17E48C07A002852D07C48407C8B
:101A3000002848D17A48C0797949897940EA01205B
:101A4000784988617648C07A4F2811D18869FEF7B5
:101A5000FCFD41EC190B9FED740B53EC102BFEF7C2
:101A600013FD41EC180BFEF71CFE6E4988610BE07C
:101A70006C48806940B16B48806900EB80001E2192
:101A800001EB4000674988616648806948B10020E1
:101A90006749087006F06EFD01206249C87452E083
:101AA000AFE063480078401C6149087006F062FDB1
:101AB0005F480078032846DD00205D490870042057
:101AC0005849C8743FE006F055FD06205549C874D2
:101AD00039E05348C07A80BB5148407C082827D25F
:101AE000DFE800F0040A0E12161A1E2201204D49EA
:101AF000C8741EE060E039E002204A49C87418E06A
:101B000009204849C87414E00C204649C87410E004
:101B100008204449C8740CE00A204249C87408E00F
:101B200003204049C87404E00B203E49C87400E01B
:101B300000BF00BF06F01EFD05E0FFE706F01AFD3E
:101B400006203849C874002031490870FF21344804
:101B5000FEF7E8FB06F00EFD002036490880022063
:101B6000FFF726F80020294908704BE0324800783A
:101B7000401C314908700846007801280DDB06201A
:101B80002849C87400202C490870FF212448FEF71A
:101B9000C9FB00201E49087002E001201C490870A2
:101BA00006F0E8FC0020234908800220FFF700F837
:101BB00000201649087012E01E48008864280EDBD9
:101BC00000201C4908801D480078401C1B490870F3
:101BD00008460078022802DB03200C49087011E057
:101BE00000201649087006F0C5FC00201149088045
:101BF00007200C49C8740020054908700349087083
:101C000000E000BF00BFBDEC048B10BD4000002011
:101C1000410000203602002057010020340200203D
:101C20005800002024000020333333333333154071
:101C30005801002042000020450000204400002000
:101C400010B500BF5021EFF3118081F31188BFF36D
:101C50004F8FBFF36F8F00BF0446802000F0D8FD88
:101C6000802006490860402000F0D2FD4020034952
:101C70000860204680F3118800BF10BD143C01406D
:101C800008F0EEF807F0B8FE532140F2E73006F016
:101C9000B5FB532140F2E73006F00EFC08E008F0F7
:101CA00005F908F013FA08F015F901200CF0C6FA4E
:101CB000F5E7000038B502460020009000BF92F81A
:101CC0003C00012801D1022038BD012082F83C00EF
:101CD00000BF0868092816D91068C0680C780A3C4B
:101CE00004EB44050724AC40A0431468E0600C7882
:101CF0000A3C04EB44048868A0401468E46820436C
:101D00001468E06013E0106800690C7804EB440587
:101D10000724AC40A043146820610C7804EB440411
:101D20008868A040146824692043146820614868CA
:101D3000072817D21068406B0C79641E04EB8405E9
:101D40001F24AC40A04314686063088880B20C79FB
:101D5000641E04EB8404A0401468646B2043146880
:101D6000606331E048680D2817D21068006B0C7969
:101D7000E41F04EB84051F24AC40A04314682063D7
:101D8000088880B20C79E41F04EB8404A040146836
:101D9000246B20431468206316E01068C06A0C7935
:101DA0000D3C04EB84051F24AC40A0431468E062A2
:101DB000088880B20C790D3C04EB8404A0401468C0
:101DC000E46A20431468E062194B1A4C1068A04280
:101DD00006D10868122803D1586840F48000586082
:101DE000144C1068A0421CD10868102802D0086862
:101DF000112816D1586840F400005860086810286F
:101E00000FD10D4800680D4CB0FBF4F000EB8000E2
:101E10004000009002E00098401E009000980028CA
:101E2000F9D100BF002082F83C0000BF00BF4BE7A3
:101E300000230140002001400400002040420F0028
:101E400001460868C06C704770B5044600250CB99F
:101E5000012070BD1549A06A884200D000BF206CE7
:101E600030B9204600F024F80020606484F83C007B
:101E7000206C00F0100088B9206C20F4885040F0ED
:101E8000020020642046FEF7E1FD00206064206C23
:101E900020F0020040F00100206400E0012500BFB6
:101EA000002084F83C0000BF2846D2E70100000F64
:101EB00010B586B004461B492068884230D100BF67
:101EC00000BF002000901848006840F400701649D8
:101ED00008600846006800F40070009000BF00BF72
:101EE00000BF00BF00BF002000900F4814380068FA
:101EF00040F002000C49143908600846006800F000
:101F00000200009000BF00BF00BF0120019003202D
:101F100002900020039001A9044800F087FC00BF54
:101F200006B010BD002101404438024000040240C8
:101F300070B504460D4600262068806800F4806075
:101F4000B0F5806F11D12068806800F48070B0F522
:101F5000807F0AD1206C40F02000206400BF002068
:101F600084F83C0000BF012070BD00F075FD0646FE
:101F700018E0681CB0B125B100F06EFD801BA842CE
:101F800010D92068006800F0020002280AD0206CF6
:101F900040F00400206400BF002084F83C0000BF33
:101FA0000320E1E72068006800F002000228E0D189
:101FB0006FF0120021680860206C40F4007020640B
:101FC0002068806800F04050B8B9207EA8B9206829
:101FD000C06A00F4700020B12068806800F480605E
:101FE00058B9206C20F480702064206C00F480507C
:101FF00018B9206C40F0010020640020B4E7000014
:1020000008B501460020009000BF91F83C0001286F
:1020100001D1022008BD012081F83C0000BF086802
:10202000806800F00100A0B90868806840F00100F5
:102030000B6898603F4800683F4BB0FBF3F000EB43
:102040004000009002E00098401E00900098002898
:10205000F9D10868806800F00100002860D0086CA1
:1020600040F20163984340F4807008640868406857
:1020700000F4806028B1086C20F4005040F48050D7
:102080000864086C00F48050B0F5805F04D1486C9F
:1020900020F00600486401E00020486400BF0020F2
:1020A00081F83C0000BF254A6FF022000B681860E1
:1020B000506800F01F0018BB214B0868984213D0ED
:1020C000204B0868984204D1101D006800F01F00E2
:1020D00050B11D4B086898422AD11848001D00686D
:1020E00000F01F00102823D20868806800F04050DC
:1020F000F0B90868806840F080400B68986017E08D
:102100000F4B0868984213D10868806800F040506F
:1021100070B90868806840F080400B68986007E0FC
:10212000086C40F010000864486C40F001004864FE
:1021300000206FE70400002040420F000023014010
:1021400000200140002101400022014070B50446FA
:10215000A56D00F081FC064694F83500022808D0F1
:102160008020606500BF002084F8340000BF01209B
:1021700070BD2068006820F01600216808602068A3
:10218000406920F0800021684861206C08B9A06C8B
:1021900028B12068006820F00800216808602068E5
:1021A000006820F00100216808600FE000F054FC96
:1021B000801B05280AD92020606500BF002084F814
:1021C000340000BF032084F83500D1E720680068A0
:1021D00000F001000028E9D194F85C103F2088400D
:1021E000A86000BF002084F8340000BF012084F8FC
:1021F00035000020BCE7014691F83500022803D0E5
:102200008020486501207047052081F83500086866
:10221000006820F001000A6810600020F3E770B544
:1022200004460CB9012070BD94F83500022800D195
:10223000F9E72068006820F00100216808600020AC
:102240002168086021684860216888602168C8604A
:10225000216808612120216848612046FEF71EFEA2
:1022600005460020E06320646064A064E0642065AB
:1022700094F85C103F208840A8600020606584F8D6
:10228000350000BF84F8340000BF00BFCBE700007A
:10229000F8B50446002000908C4800684FF41651B1
:1022A000B0FBF1F7A56D2E6894F85C10082088400B
:1022B000304098B12068006800F0040070B12068D8
:1022C000006820F004002168086094F85C10082081
:1022D0008840A860606D40F00100606594F85C1073
:1022E00001208840304068B12068406900F08000DB
:1022F00040B194F85C1001208840A860606D40F007
:102300000200606594F85C1004208840304068B199
:102310002068006800F0020040B194F85C100420CE
:102320008840A860606D40F00400606594F85C101F
:1023300010208840304078B32068006800F0080022
:1023400050B394F85C1010208840A86020680068A2
:1023500000F4802080B12068006800F4002028B9D3
:10236000206CC8B12046216C884715E0A06C98B15C
:102370002046A16C88470FE02068006800F4807058
:1023800028B92068006820F0080021680860206CE7
:1023900010B12046216C884794F85C1020208840BA
:1023A0003040002865D02068006800F01000002848
:1023B0005FD094F85C1020208840A86094F8350025
:1023C000052828D12068006820F0160021680860E0
:1023D0002068406920F0800021684861206C08B9BD
:1023E000A06C28B12068006820F00800216808600F
:1023F00094F85C103F208840A86000BF002084F85B
:10240000340000BF012084F83500206D10B1204653
:10241000216D8847F8BD2068006800F4802080B1F5
:102420002068006800F4002028B9606C10B12046D4
:10243000616C88471DE0E06BD8B12046E16B8847AE
:1024400017E02068006800F4807068B920680068B0
:1024500020F010002168086000BF002084F83400DC
:1024600000BF012084F83500E06B10B12046E16B1D
:102470008847606D38B3606D00F00100F0B1052051
:1024800084F835002068006820F0010021680860A9
:1024900000BF0098401C0090B84200D905E02068B9
:1024A000006800F001000028F3D100BF00BF002049
:1024B00084F8340000BF012084F83500E06C10B1CE
:1024C0002046E16C884700BFA4E70000040000201C
:1024D0002DE9F0410446002500F0BEFA074614B984
:1024E0000120BDE8F081606A00B100BF00BF00209C
:1024F00084F8340000BF022084F8350020680068AA
:1025000020F00100216808600AE000F0A5FAC01B75
:10251000052805D920206065032084F83500E0E710
:102520002068006800F001000028EED120680568EE
:1025300021480540D4E901010843E16808432169C5
:10254000084361690843A1690843E1690843216AB6
:1025500008430543606A042803D1D4E90B0108430A
:102560000543206805602068456925F00705606A15
:102570000543606A04280DD1A06A0543E06A48B1AA
:102580002046FEF7A5FC28B140206065012084F8B4
:102590003500A6E7206845612046FEF77FFC064629
:1025A00094F85C103F208840B060002060650120F6
:1025B00084F83500002094E73F8010F02DE9F047C3
:1025C00004460D4616461F464FF00008D4F85890B2
:1025D00000BF94F83400012802D10220BDE8F08742
:1025E000012084F8340000BF94F83500012825D17B
:1025F000022084F83500002060653B4632462946BB
:102600002046FEF7BAFC94F85C103F208840C9F8D9
:1026100008002068006840F0160021680860206CFF
:1026200028B12068006840F0080021680860206830
:10263000006840F001002168086006E000BF00204B
:1026400084F8340000BF4FF002084046C6E700009F
:10265000F0B50C46002500220023002192E001265F
:1026600006FA01F504EA0502AA427DD1474E8F0819
:1026700056F827308E07370F0F26BE403340444EA2
:10268000B04201D1002623E0424EB04201D10126E2
:102690001EE0414EB04201D1022619E03F4EB04249
:1026A00001D1032614E03E4EB04201D104260FE0D2
:1026B0003C4EB04201D105260AE03B4EB04201D16A
:1026C000062605E0394EB04201D1072600E0082673
:1026D0008F073F0FBE409E4222D1354E366896434B
:1026E000334F3E603E1D366896433F1D3E603E1DA3
:1026F000366896433F1D3E603E1D366896433F1D3B
:102700003E608E07370F0F2606FA07F31F4E8F081D
:1027100056F827609E431D4F4FEA910C47F82C60F6
:1027200006684FEA410C032707FA0CF7BE43066020
:10273000CF0800F1200656F827604F074FEAD76C04
:102740000F2707FA0CF7BE434FEAD10C00F1200720
:1027500047F82C60C6684FEA410C032707FA0CF7CC
:10276000BE43C660466800E00BE001278F40BE43D1
:10277000466086684FEA410C032707FA0CF7BE4310
:102780008660491C1029FFF46AAFF0BD083801408B
:10279000000002400004024000080240000C024019
:1027A000001002400014024000180240001C0240C9
:1027B000003C014010B50446402C0FD0802C1BD1AA
:1027C00080210F4800F034F938B900200D49088005
:1027D00005F040FE01200C49C8810EE04021084868
:1027E00000F026F938B900200849088005F076FE87
:1027F00001200549088200E000BF00BF10BD0000B5
:10280000000402401E020020BC0100202002002023
:1028100010B5044604480068204020B10248046016
:102820002046FFF7C7FF10BD143C0140F8B5024633
:102830000B460025002400200021DEE0012606FAD8
:1028400001F51E6806EA0504AC4275D11E7906F052
:102850000306012E04D01E7906F00306022E13D1C2
:1028600090684F000326BE40B0434F00DE68BE4074
:1028700030439060506801268E40B0431E79C6F305
:1028800000168E40304350601E7906F00306032E7A
:1028900009D0D0684F000326BE40B0434F009E6869
:1028A000BE403043D0601E7906F00306022E13D1DD
:1028B000CF0802F1200656F827004E07F70E0F2624
:1028C000BE40B0434F07FF0E1E69BE403043CF08E5
:1028D00002F1200646F8270010684F000326BE408C
:1028E000B0431E7906F003064F00BE40304310602F
:1028F0005E6806F08056B6F1805F7DD100BF00268D
:102900000096404E366846F480463E4F3E603E4656
:10291000366806F48046009600BF00BF3A4E8F0826
:1029200056F827008E07370F0F26BE40B043374EAC
:10293000B24202D1002624E05EE0354EB24201D11F
:1029400001261EE0334EB24201D1022619E0324E7A
:10295000B24201D1032614E0304EB24201D1042626
:102960000FE02F4EB24201D105260AE02D4EB242B1
:1029700001D1062605E02C4EB24201D1072600E027
:1029800008268F073F0FBE4030431F4E8F0846F882
:102990002700264E3068A0435E6806F48036B6F500
:1029A000803F00D12043214E3060361D3068A04367
:1029B0005E6806F40036B6F5003F00D120431B4E9A
:1029C000361D3060361D3068A0435E6806F4801600
:1029D000B6F5801F00D12043144E08363060361DF6
:1029E0003068A0435E6806F40016B6F5001F00D1FB
:1029F00020430E4E0C363060491C1029FFF41EAFE8
:102A0000F8BD000044380240083801400000024090
:102A10000004024000080240000C02400010024086
:102A20000014024000180240001C0240003C01401B
:102A3000024613690B400BB1012000E000207047F3
:102A40000AB1816101E00B048361704701480068AD
:102A5000000C7047002004E0014800687047000047
:102A6000140200200348006803490978084401491A
:102A700008607047140200201C02002010B50A48AC
:102A8000006840F40070084908600846006840F497
:102A900080600860032000F0A1F80F2000F006F825
:102AA00000F02AF8002010BD003C024070B504463A
:102AB0000E4800784FF47A71B1FBF0F00C490968C8
:102AC000B1FBF0F5284600F03FFC08B1012070BDD5
:102AD000102C07D200222146501E00F041F8054874
:102AE000046001E00120F2E70020F0E71C02002072
:102AF00004000020180200207047000010B50146B5
:102B00000846002817DB00F01F0301229A400B4BF8
:102B1000440943F8242000BF00BF00BFBFF34F8F1C
:102B200000BF00BF00BF00BF00BF00BFBFF36F8F7B
:102B300000BF00BF00BF00BF10BD000080E100E08B
:102B400001460846002809DB00F01F0301229A40D5
:102B500043099B0003F1E023C3F8002100BF704745
:102B60002DE9F05F80460D461646002706F08EFDE3
:102B7000074639462A46334601F00700C0F1070AE6
:102B8000BAF1040F02D94FF0040A01E0C0F1070ABC
:102B9000D14600F1040ABAF1070F02D24FF0000A41
:102BA00001E0A0F1030AD4464FF0010A0AFA09FA3B
:102BB000AAF1010A0AEA020A0AFA0CFA4FF0010B1A
:102BC0000BFA0CFBABF1010B0BEA030B4AEA0B040B
:102BD0002146404606F062FDBDE8F09F00BF00F0D0
:102BE0000702064B19684FF6FF031940044B0B43CD
:102BF00043EA0221014B196000BF70470CED00E071
:102C00000000FA0570B504460D460CB9012070BDF0
:102C10005848006800F00700A84209D255490D70D5
:102C20000846006800F00700A84201D00120EEE746
:102C3000207800F0020002281DD1207800F0040066
:102C4000042805D14C48006840F4E0504A49086027
:102C5000207800F00800082805D14748006840F4B3
:102C60006040454908604448006820F0F000A168D1
:102C7000084341490860207800F00100A8B360686B
:102C8000012807D13C4808380068C0F34040B8B973
:102C90000120BCE76068022802D06068032807D1E1
:102CA000354808380068C0F3406048B90120AEE7F5
:102CB000314808380068C0F3400008B90120A6E791
:102CC0002D48006820F00300616808432A49086025
:102CD000FFF7C2FE064609E0FFF7BEFE801B41F289
:102CE0008831884202D9032091E707E02248006832
:102CF00000F00C006168B0EB810FEDD11D48006859
:102D000000F00700A84209D91A490D70084600686A
:102D100000F00700A84201D0012078E7207800F0F9
:102D20000400042807D11448006820F4E050E1684A
:102D3000084311490860207800F00800082808D1ED
:102D40000D48006820F46040216940EAC1000A494A
:102D5000086000F03FF808490968C1F30311074A09
:102D6000515CC8400649086006480068FFF79EFEAF
:102D700000204CE7003C024008380240B0F2000856
:102D8000040000201802002001480068704700007D
:102D90000400002000B5FFF7F7FF04490968C1F3FC
:102DA0008221034A515CC84000BD0000083802403F
:102DB000C0F2000800B5FFF7E7FF04490968C1F356
:102DC0004231034A515CC84000BD0000083802404F
:102DD000C0F200082DE9F047002400250026A14696
:102DE0002548006800F00C0020B1042805D0082810
:102DF0003AD105E0DFF8849039E0DFF8849036E0DE
:102E00001D48001F006800F03F041B48001F0068B9
:102E100000F4800078B11A481749091F0968C1F306
:102E20008811A0FB01700146224600233846FDF7B9
:102E30002FFA05460EE011480F49091F0968C1F332
:102E40008811A0FB01700146224600233846FDF799
:102E50001FFA05460848001F0068C0F30140401CE7
:102E60004600B5FBF6F902E0DFF8109000BF00BFA6
:102E70004846BDE8F0870000083802400024F4000E
:102E800000127A00F8B504460CB90120F8BD20788C
:102E900000F00100002874D0F948006800F00C0030
:102EA00004280DD0F648006800F00C00082813D163
:102EB000F348001F006800F48000B0F5800F0BD1CC
:102EC000EF4808380068C0F34040002859D06068D7
:102ED000002856D10120D9E700BF6068B0F5803FD7
:102EE00008D1E7480838006840F48030E4490839E0
:102EF00008601EE06068B0F5A02F0DD1E0480838EA
:102F0000006840F48020DE490839086008460068FF
:102F100040F4803008600CE0D9480838006820F49C
:102F20008030D749083908600846006820F48020BE
:102F3000086000BF606890B1FFF78EFD054606E0AF
:102F4000FFF78AFD401B642801D903209EE7CC4887
:102F500008380068C0F340400028F1D011E0FFF7C6
:102F60007BFD054606E0FFF777FD401B642801D98D
:102F700003208BE7C24808380068C0F340400028AF
:102F8000F1D1207800F0020002285FD1BC4800682F
:102F900000F00C0058B1BA48006800F00C00082896
:102FA0001CD1B748001F006800F48000B0B9B448D5
:102FB00008380068C0F3400020B1E068012801D063
:102FC000012063E7AE480838006820F0F800216966
:102FD00040EAC100AA490839086037E0E06800B358
:102FE0000120A8490860FFF737FD054606E0FFF716
:102FF00033FD401B022801D9032047E7A0480838C9
:103000000068C0F340000028F1D09D4808380068EF
:1030100020F0F800216940EAC100994908390860A8
:1030200014E0002097490860FFF716FD054606E00A
:10303000FFF712FD401B022801D9032026E7904824
:1030400008380068C0F340000028F1D1207800F073
:10305000080008282CD16069A8B101208A490860BD
:10306000FFF7FAFC054606E0FFF7F6FC401B0228D6
:1030700001D903200AE782486C300068C0F34000A1
:103080000028F1D014E000207F490860FFF7E4FC3D
:10309000054606E0FFF7E0FC401B022801D90320AB
:1030A000F4E677486C300068C0F340000028F1D1A6
:1030B000207800F00400042870D1002770483830D0
:1030C000006800F0805090B900BF002000906C486C
:1030D0003830006840F0805069493831086008464F
:1030E000006800F08050009000BF00BF01276748D3
:1030F000006800F48070B0B96448006840F48070E3
:1031000062490860FFF7A8FC054606E0FFF7A4FC4B
:10311000401B022801D90320B8E65C48006800F48F
:1031200080700028F2D000BFA068012808D1544860
:103130006830006840F001005149683108601DE0C6
:10314000A06805280DD14E486830006840F00400A2
:103150004B49683108600846006840F0010008608B
:103160000CE047486830006820F0010044496831AD
:1031700008600846006820F00400086000BFA068EE
:10318000A8B1FFF769FC054609E0FFF765FC401BA5
:1031900041F28831884202D9032077E626E0384898
:1031A00068300068C0F340000028EED013E0FFF75D
:1031B00053FC054608E0FFF74FFC401B41F2883105
:1031C000884201D9032061E62D4868300068C0F3C9
:1031D00040000028EFD1012F07D12948383000687E
:1031E00020F0805026493831086000BFA0690028CF
:1031F00045D02348006800F00C0008285DD0A06985
:10320000022845D100201F490866FFF725FC054626
:1032100006E0FFF721FC401B022801D9032035E618
:10322000174808380068C0F340600028F1D1D4E99D
:1032300007010843616A40EA81110122A06AC2EBDA
:10324000500041EA00412C20005D41EA00600C4939
:10325000091F086001200B490866FFF7FDFB0546C2
:1032600006E0FFF7F9FB401B022801D903200DE619
:10327000034808380068C0F340600028F1D049E0F6
:103280000838024000004742800E4742007000406C
:10329000002021490866FFF7DFFB054606E0FFF73F
:1032A000DBFB401B022801D90320EFE51B48006827
:1032B000C0F340600028F2D12CE0A069012800D1C1
:1032C000E4E51648001D0668A069012820D006F430
:1032D0008001E06981421BD106F03F01206A8142F2
:1032E00016D147F6C0703040616AB0EB811F0FD134
:1032F00006F440310122A06AC2EB5000B1EB004F4E
:1033000006D106F070612C20005DB1EB006F01D09A
:103310000120BBE50020B9E500004742003802402B
:10332000042808D14FF0E021096941F004014FF071
:10333000E022116107E04FF0E021096921F004016A
:103340004FF0E0221161704770B504462546681EB3
:10335000B0F1807F01D301200FE0681E4FF0E02123
:1033600048610F214FF0FF3006F098F900204FF030
:10337000E021886107200861002070BD7047704718
:1033800010B50346002200BF93F83C00012801D18C
:10339000022010BD012083F83C0000BF22F0FF0096
:1033A000CC6840EA040222F440708C6840EA0402CF
:1033B00022F480604C6840EA040222F400600C6849
:1033C00040EA040222F480500C6940EA040222F42C
:1033D00000504C6940EA040222F48040CC6940EA83
:1033E00004021868426400BF002083F83C0000BF5C
:1033F00000BFCEE730B502460B4600BF92F83C0056
:10340000012801D1022030BD012082F83C0000BF1C
:10341000022082F83D00106844681068816824F03A
:1034200070041868044310684460184D1068A8427E
:103430001BD01068B0F1804F17D0154D1068A8420E
:1034400013D0144D1068A8420FD0134D1068A84235
:103450000BD0124D1068A84207D0114D1068A84239
:1034600003D0104D1068A84205D121F080015868A2
:10347000014310688160012082F83D0000BF0020F8
:1034800082F83C0000BF00BFBDE700000000014023
:103490000004004000080040000C0040000401400F
:1034A000004001400018004010B504460CB901204E
:1034B00010BD94F83D0028B9002084F83C00204657
:1034C00000F026F8022084F83D00211D206804F059
:1034D0007DFD012084F8460000BF84F83E000121F4
:1034E0003F200155402001554120015500BF00BF3C
:1034F000012084F842004320015544200155452015
:10350000015500BF012084F83D000020D0E70000F5
:1035100038B5044667492068884217D100BF0020AB
:1035200000906548006840F0100063490860084654
:10353000006800F01000009000BF00BF00220D21C5
:103540003620FFF70DFB3620FFF7FAFA5B492068BB
:10355000884217D100BF002000905748006840F013
:103560002000554908600846006800F020000090DF
:1035700000BF00BF002206213720FFF7F1FA3720F5
:10358000FFF7DEFA4E492068884217D100BF0020BD
:1035900000904948006840F0080047490860084624
:1035A000006800F00800009000BF00BF00220D215D
:1035B0003220FFF7D5FA3220FFF7C2FA41492068DE
:1035C000884217D100BF002000903B48006840F0BF
:1035D0000400394908600846006800F004000090C3
:1035E00000BF00BF00220D211E20FFF7B9FA1E20E8
:1035F000FFF7A6FA34492068884217D100BF00209F
:1036000000902D48006840F002002B4908600846F1
:10361000006800F00200009000BF00BF00220E21F1
:103620001D20FFF79DFA1D20FFF78AFA2749206821
:10363000884221D100BF002000901F48001D006873
:1036400040F002001C49091D08600846006800F0AF
:103650000200009000BF00BF00220C212B20FFF7CA
:103660007FFA2B20FFF76CFA00220E212C20FFF7A7
:1036700077FA2C20FFF764FA2068B0F1804F17D159
:1036800000BF002000900C48006840F001000A498B
:1036900008600846006800F00100009000BF00BF0D
:1036A00000220E211C20FFF75BFA1C20FFF748FACE
:1036B00038BD0000001000404038024000140040B7
:1036C000000C0040000800400004004000040140DD
:1036D000014691F83D00012801D0012070470220E9
:1036E00081F83D000868C06840F001000B68D860B0
:1036F0001A4B086898421BD00868B0F1804F17D069
:10370000174B0868984213D0164B086898420FD0A0
:10371000154B086898420BD0144B0868984207D0A4
:10372000134B0868984203D0124B086898420CD19A
:103730000868806800F00702062A0CD00868006854
:1037400040F001000B68186005E00868006840F070
:1037500001000B6818600020C0E700000000014075
:103760000004004000080040000C0040000401403C
:10377000004001400018004001460868C06820F081
:1037800001000A68D06000BF0868006A41F21112A7
:10379000104050B90868006A9210104028B90868B3
:1037A000006820F001000A68106000BF012081F865
:1037B0003D00002070472DE9F04104460D4600BF52
:1037C00094F83C00012802D10220BDE8F0810120DC
:1037D00084F83C0000BF022084F83D002068866821
:1037E00026F0770626F47F462068866028685028F1
:1037F00033D00CDC202850D004DC00284BD010281B
:1038000051D149E0302849D040284CD139E06028D6
:103810002DD0702807D0B0F5805F03D0B0F5005FE1
:1038200041D10DE040E0D5E902136A68206804F058
:10383000CDFC2068866846F077062068866033E015
:10384000D5E902136A68206804F0C0FC206880682B
:1038500040F480402168886026E0EA686968206852
:1038600004F0A4FD5021206804F0BBFC1CE0EA68D1
:103870006968206804F0ADFD6021206804F0B1FCA7
:1038800012E0EA686968206804F090FD4021206831
:1038900004F0A7FC08E000BF00BF00BF2968206853
:1038A00004F09FFC00E000BF00BF012084F83D0051
:1038B00000BF002084F83C0000BF00BF85E77047D0
:1038C000704710B5044620680069C0F34000D8B1C5
:1038D0002068C068C0F34000B0B16FF002002168FA
:1038E0000861012020772068806900F0030018B18A
:1038F0002046FFF7E5FF05E0204600F0ADF8204642
:1039000000F0A0F90020207720680069C0F3800053
:10391000D8B12068C068C0F38000B0B16FF0040077
:1039200021680861022020772068806900F44070D7
:1039300018B12046FFF7C4FF05E0204600F08CF8E0
:10394000204600F07FF90020207720680069C0F34E
:10395000C000D8B12068C068C0F3C000B0B16FF03B
:10396000080021680861042020772068C06900F001
:10397000030018B12046FFF7A3FF05E0204600F042
:103980006BF8204600F05EF900202077206800697F
:10399000C0F30010D8B12068C068C0F30010B0B107
:1039A0006FF0100021680861082020772068C06946
:1039B00000F4407018B12046FFF782FF05E0204672
:1039C00000F04AF8204600F03DF9002020772068FA
:1039D000006900F0010058B12068C06800F00100E3
:1039E00030B16FF0010021680861204600F04AFA0A
:1039F00020680069C0F3C01058B12068C068C0F3E7
:103A0000C01030B16FF08000216808612046FFF7D8
:103A1000B5FC20680069C0F3801058B12068C06808
:103A2000C0F3801030B16FF040002168086120467B
:103A300000F014FB20680069C0F3401058B1206802
:103A4000C068C0F3401030B16FF0200021680861F9
:103A50002046FFF794FC10BD704770B504460D4634
:103A6000164600BF94F83C00012801D1022070BD29
:103A7000012084F83C0000BF36B1042E1BD0082E74
:103A800031D00C2E5ED145E02946206804F0B2FB0F
:103A90002068806940F0080021688861206880699A
:103AA00020F0040021688861206880692969084342
:103AB0002168886147E02946206804F0D3FB20682C
:103AC000806940F40060216888612068806920F482
:103AD00080602168886120688069296940EA012046
:103AE000216888612FE02946206804F0F9FB2068EE
:103AF000C06940F008002168C8612068C06920F0F2
:103B000004002168C8612068C069296908432168E8
:103B1000C86118E02946206804F01EFC2068C069CE
:103B200040F400602168C8612068C06920F48060AA
:103B30002168C8612068C069296940EA01202168BC
:103B4000C86100E000BF00BF00BF002084F83C0057
:103B500000BF00BF8BE710B504460CB9012010BDB3
:103B600094F83D0028B9002084F83C00204600F07D
:103B700025F8022084F83D00211D206804F026FA73
:103B8000012084F8460000BF84F83E0001213F2058
:103B90000155402001554120015500BF00BF0120C3
:103BA00084F8420043200155442001554520015529
:103BB00000BF012084F83D000020D0E710B586B09A
:103BC00004461D492068884233D100BF00BF002051
:103BD00000901A48006840F0010018490860084643
:103BE000006800F00100009000BF00BF00BF00BFF0
:103BF00000BF0020009011481438006840F0100009
:103C00000E49143908600846006800F01000009062
:103C100000BF00BF00BF4FF400500190022002908F
:103C20000020039004900120059001A90448FEF7AC
:103C3000FDFD06B010BD0000000001404438024008
:103C400000100240704770472DE9F04104460D46D0
:103C500016461F4615B994F83E000BE0042D02D11C
:103C60003F20005D06E0082D02D14020005D01E00C
:103C70004120005D022801D1BDE8F08115B994F81A
:103C80003E000BE0042D02D13F20005D06E0082D30
:103C900002D14020005D01E04120005D012817D1E4
:103CA0000EB907B1E8E71DB9022084F83E0011E023
:103CB000042D03D102213F2001550BE0082D03D133
:103CC00002214020015505E002214120015501E07B
:103CD0000120D1E735B1042D1FD0082D38D00C2D8F
:103CE0006CD150E05D49606AC1635D49606A0164FE
:103CF0005C49606AC164216801F134023B46314687
:103D0000606AFEF75BFC08B10120B5E72068C06877
:103D100040F400702168C86051E05049A06AC16356
:103D20004F49A06A01644F49A06AC164216801F14A
:103D300038023B463146A06AFEF740FC08B101203C
:103D40009AE72068C06840F480602168C86036E067
:103D50004249E06AC1634249E06A01644149E06A5C
:103D6000C164216801F13C023B463146E06AFEF73E
:103D700025FC08B101207FE72068C06840F400609E
:103D80002168C8601BE03549206BC1633449206B52
:103D900001643449206BC164216801F140023B4653
:103DA0003146206BFEF70AFC08B1012064E7206869
:103DB000C06840F480502168C86000E000BF00BFC8
:103DC00001222946206804F06DF9274920688842BD
:103DD00003D026492068884201D1012000E000205C
:103DE00028B12068406C40F40040216848641E49B6
:103DF000206888421BD02068B0F1804F17D01C4942
:103E00002068884213D01B49206888420FD01A4985
:103E1000206888420BD015492068884207D017498E
:103E20002068884203D01649206888420DD1206856
:103E3000806800F00708B8F1060F0CD02068006811
:103E400040F001002168086005E02068006840F04B
:103E500001002168086000200EE70000C78000080C
:103E60002F8100086F81000800000140000401401C
:103E70000004004000080040000C004000400140E9
:103E80000018004030B585B0044667492068884274
:103E900004D166480088401C6449088000BF502156
:103EA000EFF3118081F31188BFF34F8FBFF36F8F52
:103EB00000BF05465E492068884271D15D48008890
:103EC00008287BD2DFE800F00412223240505E6EF8
:103ED00000204C221423CDE902200490CDE90003F8
:103EE00096230246132105F003FB68E04C203A219B
:103EF00039222723CDE90132CDE903100020962392
:103F000002462621009005F0F3FA58E04C203A21B1
:103F100026221423CDE90132CDE903100020962397
:103F200002463921009005F0E3FA48E04C203A219E
:103F300000220192CDE902219623392100920490BA
:103F4000104605F0D5FA3AE039202721262214231D
:103F5000CDE90132CDE903100020962302464C2121
:103F6000009005F0C5FA2AE0002039222723CDE988
:103F700002200490CDE90003962302464C2105F06F
:103F8000B7FA1CE0002026221423CDE90220049079
:103F9000CDE90003962302464C2105F0A9FA0EE074
:103FA0000EE00BE000200190029003900490962315
:103FB00002464C21009005F09BFA00E000BF00BFD4
:103FC00000BF85F3118800BF1B492068884204D1D7
:103FD0001A480088401C19490880194920688842FD
:103FE00004D118480088401C1649088016492068EA
:103FF000884204D115480088401C1449088014499F
:104000002068884204D113480088401C1149088068
:104010002068B0F1804F04D10F480088401C0E4941
:10402000088005B030BD00000010004042000020B4
:10403000001400400C000020000800402002002076
:104040000004004080010020000C004062010020BC
:1040500000040140640100201E02002070477047E8
:1040600070B50446002520684069C0F3C01594F877
:104070003D0021280ED16DB12068406920F08000FC
:1040800021684861606B10B1606BFEF75FF82046F5
:1040900004F013FC20684069C0F3801594F83E00DA
:1040A00022280ED16DB12068406920F040002168BF
:1040B0004861A06B10B1A06BFEF748F8204604F0F1
:1040C000D1FB002070BD70472DE9F84F04462068F1
:1040D00005682068C668206847694FF00009CA462D
:1040E00005F00F09B9F1000F0AD105F0200038B131
:1040F00006F0200020B1204604F0E9FBBDE8F88F6F
:10410000B9F1000F72D007F0010018B906F49070F1
:1041100000286BD005F0010030B106F4807018B1B2
:10412000206C40F00100206405F0040030B107F07D
:10413000010018B1206C40F00200206405F002007C
:1041400030B107F0010018B1206C40F00400206489
:1041500005F0080048B106F0200010B907F0010092
:1041600018B1206C40F008002064206C70B305F09A
:10417000200028B106F0200010B1204604F0A7FB73
:1041800020684069C0F3801A206C00F0080010B964
:10419000BAF1000F23D0204604F064FB2068406988
:1041A00000F04000402816D12068406920F040000F
:1041B00021684861A06B50B15648A16B0865A06B9F
:1041C000FEF719F810B1A06B016D88470CE020468E
:1041D000FFF779FF08E02046FFF775FF04E020466F
:1041E000FFF771FF0020206488E7FFE7206B0128BC
:1041F00079D105F01000002875D006F010000028D5
:1042000071D000BF002000902068006800902068F6
:104210004068009000BF00BF2068406900F0400087
:10422000402839D1A06B006840681FFA80F8B8F1C7
:10423000000F30D0A08D40452DDDA4F82E80A06B5E
:10424000C069B0F5807F1FD02068C06820F48070FE
:104250002168C8602068406920F001002168486139
:104260002068406920F0400021684861202084F8DF
:104270003E00002020632068C06820F01000216804
:10428000C860A06BFDF762FFA08DE28D801A81B23D
:104290002046FFF7E4FE31E7A08DE18D401A1FFABA
:1042A00080F8E08DE8B1B8F1000F1AD02068C0683E
:1042B00020F490702168C8602068406920F00100F7
:1042C00021684861202084F83E0000202063206897
:1042D000C06820F010002168C86041462046FFF702
:1042E000BEFE0BE7FFE705F0800030B106F080006E
:1042F00018B1204604F0ACFC00E705F0400030B1F6
:1043000006F0400018B1204604F0C7FAF6E600BFF8
:10431000F4E600003587000810B504460CB901200A
:1043200010BDA06900B100E000BF94F83D0028B9BD
:10433000002084F83C00204600F028F8242084F86F
:104340003D002068C06820F400502168C860204605
:1043500004F01CFB2068006920F49040216808618B
:104360002068406920F02A00216848612068C06800
:1043700040F400502168C86000202064202084F8A8
:104380003D0084F83E000020CAE7000010B586B06A
:104390000446142101A8FBF7C5FFFE4920688842A6
:1043A0007CD100BF00200090FB48006840F0100066
:1043B000F94908600846006800F01000009000BF4E
:1043C00000BF00BF00200090F3481438006840F0A0
:1043D0000100F149143908600846006800F0010046
:1043E000009000BF00BF48150190022002900120FC
:1043F0000390032004900720059001A9E748FEF7E9
:1044000015FA4FF480600190022002900020039082
:10441000032004900720059001A9E048FEF706FA62
:10442000DF48E04908604FF0006048600021DD4847
:104430008160C1604FF4806101610021416181614F
:10444000C16101624162FEF743F800BFD548A06335
:10445000846300BFD2487830D34908604FF00060D1
:1044600048604021D04881600021C1604FF48061E4
:104470000161002141618161C16101624162FEF718
:1044800027F800BFC8486063846300BF0822072183
:104490002520FEF765FB2520FEF752FBC349206867
:1044A00088427DD100BF00200090BB48001F0068FB
:1044B00040F40030B849091F08600846006800F45D
:1044C0000030009000BF00BF00BF00200090B24845
:1044D0001438006840F00100AF49143908600846FC
:1044E000006800F00100009000BF00BF04200190B0
:1044F00002200290012003900320049007200590E1
:1045000001A9A648FEF792F9082001900220029026
:1045100000200390032004900720059001A99F48E4
:10452000FEF784F9A248A34908604FF00060486094
:104530000021A0488160C1604FF4806101610021C9
:1045400041618161C1614FF44031016200214162EA
:10455000FDF7BEFF00BF9748A063846300BF944887
:104560001830954908604FF000604860402192483B
:1045700081600021C1604FF48061016100214161CF
:104580008161C1614FF44031016200214162FDF758
:104590009FFF00BF88486063846300BF072200E07C
:1045A00006E011462620FEF7DBFA2620FEF7C8FAC1
:1045B0008249206888427DD100BF00200090764863
:1045C000001F006840F480207349091F08600846F6
:1045D000006800F48020009000BF00BF00BF0020F2
:1045E00000906D481438006840F002006A491439A0
:1045F00008600846006800F00200009000BF00BF9D
:1046000008150190022002900120039003200490DD
:104610000720059001A96A48FEF708F94FF40060E9
:1046200001900220029000200390032004900720B4
:10463000059001A96248FEF7F9F85D4860386149C4
:1046400008604FF00060486000215E488160C160F2
:104650004FF480610161002141618161C1610162AA
:104660004162FDF735FF00BF5648A063846300BF79
:104670004F483038544908604FF00060486040218E
:10468000514881600021C1604FF4806101610021C7
:1046900041618161C16101624162FDF719FF00BFA3
:1046A00049486063846300BF062207212720FEF784
:1046B00057FA00E002E02720FEF742FA434920685B
:1046C000884265D100BF002000903348001F006879
:1046D00040F400203049091F08600846006800F4D3
:1046E0000020009000BF00BF00BF002000902A48BB
:1046F0001438006840F00100274914390860084662
:10470000006800F00100009000BF00BF032001908E
:1047100002200290012003900320049008200590BD
:1047200001A91E48FEF782F8214848382849086048
:1047300040054860002126488160C1604FF48061D7
:104740000161002141618161C16101624162FDF746
:10475000BFFE00BF1E48A063846300BF1448183822
:104760001C4908604FF00060486040211948816092
:104770000021C1604FF480610161002141618161CC
:10478000C16101624162FDF7A3FE00BF114823E051
:104790002DE00000001001404438024000000240BB
:1047A00040640240C81A0020281B0020004400403A
:1047B00088600240881B0020E81B00200048004061
:1047C00000040240481C0020A81C0020004C0040AF
:1047D000081D0020681D00206063846300BF002264
:1047E00011463420FEF7BCF93420FEF7A9F94949F7
:1047F000206888427ED100BF0020009046480068B3
:1048000040F48010444908600846006800F48010B5
:10481000009000BF00BF00BF002000903E4810384D
:10482000006840F004003C49103908600846006800
:1048300000F00400009000BF00BF00BF0020009007
:104840000846006840F0080008600846006800F06C
:104850000800009000BF00BF881401900220029061
:1048600001200390032004900820059001A92B4803
:10487000FDF7DCFF0420019002200290012003904C
:10488000032004900820059001A92548FDF7CEFFDC
:10489000244825490860C0054860002122488160FD
:1048A000C1604FF480610161002141618161C1619A
:1048B00001624162FDF70CFE00BF1B48A0638463E8
:1048C00000BF1848A830194908604FF000604860E0
:1048D0004021164881600021C1604FF48061016170
:1048E000002141618161C16101624162FDF7F0FD1A
:1048F00000BF00E00BE00D486063846300BF00224E
:1049000007213520FEF72CF93520FEF719F906B0FE
:1049100010BD000000500040403802400008024036
:10492000000C024010600240C81D0020281E00201C
:1049300070B504460D46164694F83E00202816D160
:1049400005B10EB9012070BD00BF94F83C000128EC
:1049500001D10220F7E7012084F83C0000BF0020CD
:10496000206332462946204604F026F9EBE7022070
:10497000E9E7704770472DE9F84F04460E461746A1
:1049800099464FF0000A94F83D0020285AD106B10C
:1049900017B90120BDE8F88F00BF94F83C0001284A
:1049A00001D10220F6E7012084F83C0000BF00207E
:1049B0002064212084F83D00FEF74EF88246A7844B
:1049C000E784A068B0F5805F04D1206910B90025A4
:1049D000B04602E035464FF0000800BF002084F8E2
:1049E0003C0000BF1BE05346002280212046CDF84A
:1049F000009004F05DF908B10320CBE745B9B8F8A1
:104A00000000C0F308002168486008F1020803E0D4
:104A10002878216848606D1CE08C401EE084E08CA2
:104A20000028E0D15346002240212046CDF80090D6
:104A300004F03EF908B10320ACE7202084F83D00E3
:104A40000020A7E70220A5E7F7B50446154694F82D
:104A50003D0020283DD1019800B10DB90120FEBDD7
:104A600000BF94F83C00012801D10220F7E70120A3
:104A700084F83C0000BF01982062A584E5840020F2
:104A80002064212084F83D001348616BC8631348FB
:104A9000616B08641248616BC8640020616B086533
:104AA00001AE23681A1D31682B46606BFDF786FD49
:104AB0006FF040002168086000BF002084F83C00CF
:104AC00000BF2068406940F08000216848610020F4
:104AD000C5E70220C3E700002188000857880008C6
:104AE00049870008154A0168914202D10121144A00
:104AF0001170144A0168914202D10121124A1170C9
:104B0000124A0168914202D10121114A1170114AE1
:104B10000168914202D101210F4A11700F4A0168C8
:104B2000914202D101210E4A11700E4A0168914250
:104B300002D101210C4A11707047000000100140A1
:104B400032020020004400403602002000480040AD
:104B50003A020020004C00402A0200200050004091
:104B60002E020020001401403E02002070474FF446
:104B7000E13004F01BFA4FF47A7009F05FFB04E0B7
:104B800007F096F9012009F059FBF9E70025002408
:104B90004FF4FA7009F052FB00BF07F0C7FA38B1C2
:104BA0004F480078401EC0B24D4908700028F4D12B
:104BB00003204B4908700F224A49042004F030FCBE
:104BC0001E2009F03BFB00BF0F224749042004F0E0
:104BD00027FC1E2009F032FB4448007D38B94048CC
:104BE0000078401EC0B23E4908700028ECD1032076
:104BF0003B49087000BF0F223D49042004F010FC1F
:104C00001E2009F01BFB3B48007838B93448007877
:104C1000401EC0B2324908700028ECD10320304950
:104C2000087000BF0F223449042004F0F9FB1E2055
:104C300009F004FB04F008FF38B129480078401E51
:104C4000C0B2274908700028ECD1532142F20F70FE
:104C500003F010FC40F2473142F20F7003F04EFCBB
:104C600040F28F6142F20F7003F0A6FCFCF73CFBB0
:104C70004FF47A7009F0E2FA31E001F02BF900F01C
:104C80004DFF00F0AFFA00F043FC00F073FA01F0C2
:104C900033F801F069F800F069FB00F0BBF8134845
:104CA0000088042809DA11480088002805DD00245E
:104CB00001251249086802F025FA012D0CD10A2CB1
:104CC00008DD002009498861002400250B49086897
:104CD00002F018FA601CC4B2012009F0AFFACCE768
:104CE000A2010020E0F40008EFF4000824000020F6
:104CF000FEF40008A80100200DF50008BC0100200A
:104D000010B50446012C3AD13C4948740C223C4968
:104D1000042004F085FB3B48407810B33748007806
:104D2000012804D0022809D0032815D10DE0042061
:104D3000354908803148406848600EE00520324916
:104D400008802E488068886007E006202E49088089
:104D50002A488089888100E000BF00BFC82009F090
:104D60006DFA002210212948FDF76AFEC82009F0DB
:104D700065FA002021494874012008743CE0022CA7
:104D80003AD101201D4948740C221D49042004F029
:104D900047FB1C48007810B318480078012804D05D
:104DA000022809D0032815D10DE0042016490880F7
:104DB0001248406848600EE00520134908800F48FB
:104DC0008068886007E006200F4908800B488089CA
:104DD000888100E000BF00BFC82009F02FFA01223F
:104DE00010210A48FDF72CFEC82009F027FA002000
:104DF000024948740220087410BD000068010020B8
:104E0000C0F30008E0010020240000200000024060
:104E100000BFFEE710B5052009F010FAC548C078BC
:104E20000A2807D0C3484078042803D0C1488078B6
:104E3000042814D1C048007800280FD10120BE49B1
:104E4000087003F029FB0020BC4908800C22BC49F3
:104E5000042004F0E5FA052009F0F0F905E1B54871
:104E6000C078092807D0B3484078032803D0B14858
:104E70008078032829D1B04800780028EED101209D
:104E8000AD49087003F008FBAA48C078092802D190
:104E90000020A849C870A7484078032802D1002004
:104EA000A4494870A3488078032802D10020A14972
:104EB00088700020A14908800C22A249042004F037
:104EC000AFFA052009F0BAF9CFE09F48C07C02286C
:104ED0000BD09D48C07C092807D09B48C07C0A287D
:104EE00003D09948C07C0B281DD193480078002836
:104EF000B4D101209549887409F0A2FE9449086054
:104F000001208D49087003F0C7FA00208B49088002
:104F10008D49C8740C228F49042004F081FA0520C1
:104F200009F08CF9A1E08848C07C0C2816D1824891
:104F30000078002892D101207F49087003F0ACFA74
:104F400000207E4908808049C8740C2282490420D0
:104F500004F066FA052009F071F986E07A48C07C11
:104F6000032816D17448007800287ED101207249A8
:104F7000087003F091FA0020704908807249C874E3
:104F80000C227649042004F04BFA052009F056F96A
:104F90006BE06D48C07C042816D167480078002873
:104FA00063D101206449087003F076FA0020634958
:104FB00008806549C8740C226949042004F030FA5D
:104FC000052009F03BF950E05F48C07C062816D167
:104FD00059480078002848D101205749087003F04B
:104FE0005BFA0020554908805749C8740C225D4976
:104FF000042004F015FA052009F020F935E05248A4
:10500000C07C072818D14C48007870BB01204A4961
:10501000087003F041FA0020484908804A49C874E2
:105020004A48807C08BB0C224F49042004F0F8F960
:10503000052009F003F918E04348C07C082814D182
:105040003D48007888B901203B49087003F024FAF4
:1050500000203A4908803C49C8740C224349042086
:1050600004F0DEF9052009F0E9F833480078B8B11A
:105070003548C07CA0B931480088B0F5C87F0FDD45
:1050800000202D49087003F00FFA00202B490880FA
:105090000C223749042004F0C3F9052009F0CEF8AA
:1050A00025480078E8B12348C07828B121484078E5
:1050B00010B120488078A0B920480088B0F5C87F9A
:1050C0000FDD00201C49087003F0EEF900201B4999
:1050D00008800C222649042004F0A2F9052009F0DA
:1050E000ADF816480088B0F5C87F0FDD00201249E2
:1050F000087003F0D9F90020104908800C221C49DF
:10510000042004F08DF9052009F098F80E48C07CC1
:1051100001280DD10D48807C50B109F091FD0C495A
:105120000968401AB0F5FA6F02D300200749887465
:1051300010BD0000A8010020A10100208001002076
:10514000B8F50008ACF50008240000206801002034
:10515000840100200CF60008C4F50008D0F5000812
:10516000DCF50008E8F50008F4F5000800F6000892
:10517000A0F5000810B51748007D98B116480078D2
:1051800080B91548007808B9012000E000201249D4
:1051900008700C221149042004F042F9142009F08F
:1051A0004DF815E00B48007D90B90B48007878B1B8
:1051B0000948007808B9012000E00020064908707D
:1051C0000C220749042004F02BF9142009F036F8CA
:1051D00010BD0000BC01002090010020E4F3000895
:1051E000D8F3000810B55448C07C54490978884267
:1051F00003D05148C07C5149087000244E48C07CFF
:10520000B8B14F480078401C4D49087008460078F6
:10521000022811DD00200870012400BF0120494947
:105220000860322009F00AF800204749C1F8B002AE
:1052300002E000204249087064B3002400203E4987
:10524000C87442480078022803D101204049087000
:1052500020E03E48007801281CD13E480078C8B9BB
:1052600002F070FB052008F0E9FF0B223A49042008
:1052700004F0D6F8052008F0E1FF0C22374904209D
:1052800004F0CEF8052008F0D9FF0020304908705E
:10529000304908702E480078012802D0022847D1F2
:1052A0002BE02F48008838BB2E48007820BB012017
:1052B0002C49087000202C49088003F0ABF901202C
:1052C000244908702149087002F03CFB052008F0D1
:1052D000B5FF0B222049042004F0A2F8052008F0B5
:1052E000ADFF0C221D49042004F09AF8052008F0B7
:1052F000A5FF0220164908701BE01B4800881928EA
:1053000015DB03F08FF90020174908801549087054
:1053100010480078012807D102F014FB052008F09E
:105320008DFF00200B49087000200949087000E03B
:1053300000BF00BF10BD0000BC010020950100208F
:1053400094010020B0824042008040426001002071
:10535000920100209301002042F5000870F500083A
:1053600062010020660100206401002010B55F4842
:1053700000785F490978884205D15C4840785D49EA
:105380000978884236D059480078594908705748FA
:105390004078584908705548007860B353484078C1
:1053A00048B30C225449042004F03AF80A2008F0CB
:1053B00045FF4E488078012804D002280BD00328EE
:1053C00013D111E00C224D49042004F029F80A20E1
:1053D00008F034FF0AE00C224949042004F020F8C8
:1053E0000A2008F02BFF01E000E000BF00BF012011
:1053F000FFF786FC79E03D48007870BB3B48407879
:1054000058B33A48C078012804D0022813D00328A2
:1054100024D121E00C223949042004F001F80520B0
:1054200008F00CFF0C223749042003F0F9FF052097
:1054300008F004FF13E00C223149042003F0F0FFD0
:10544000052008F0FBFE0C222F49042003F0E8FFA2
:10545000052008F0F3FE02E001E005E000BF00BF18
:105460000220FFF74DFC40E020480078A0B31F4821
:10547000407888BB1D488078012804D0022813D0CA
:10548000032823D121E00C221C49042003F0C8FF8B
:10549000052008F0D3FE0C221A49042003F0C0FFB7
:1054A000052008F0CBFE12E00C221549042003F081
:1054B000B7FF052008F0C2FE0C221349042003F0B8
:1054C000AFFF052008F0BAFE01E000E000BF00BF1A
:1054D0000120FFF715FC08E0FFE70C220B49042030
:1054E00003F09EFF052008F0A9FE10BDE00100209A
:1054F0009F010020A0010020D4F4000894F50008CA
:1055000088F50008BCF40008C8F40008B0F40008EE
:1055100010B5FE48807C002870D00020FB498874BC
:10552000FB480078012804D0022868D0032867D1FE
:10553000DBE10420F749088001208874002088619D
:105540000C22F549042003F06BFF052008F076FEDD
:105550000C22F249042003F063FF052008F06EFEE0
:105560000C22EF49042003F05BFF052008F066FEE3
:105570000C22EC49042003F053FF052008F05EFEE6
:105580000C22E949042003F04BFF052008F056FEE9
:105590000B22E649042003F043FF052008F04EFEED
:1055A0000C22E349042003F03BFF052008F046FEEF
:1055B00000BF0120DF490860322008F03FFE0020D4
:1055C000DD49C1F8B00200BFD148807B092871D203
:1055D000DFE800F08205172635445362710042F27D
:1055E0001070CB49486008464068CA494860084680
:1055F00005214268002004F093FB87E078E287E011
:1056000074E244F62060C249486008464068C149D7
:105610004860084605214268002004F081FB75E0DF
:1056200047F23050BA49486008464068B949486076
:10563000084605214268002004F072FB66E049F646
:105640004040B349486008464068B249486008464F
:1056500005214268002004F063FB57E04CF2503013
:10566000AB49486008464068AA4948600846052199
:105670004268002004F054FB48E04EF66020A44944
:10568000486008464068A3494860084605214268CA
:10569000002004F045FB39E0A8489D4948600846D1
:1056A00040689C494860084605214268002004F093
:1056B00037FB2BE010E0A248954948600846406857
:1056C000944948600846406841F2883142180521F3
:1056D000002004F025FB19E08D4840688D494860A2
:1056E0008B4840689649884209D18A48406841F20F
:1056F000883142180521002004F012FB05E085489E
:1057000005214268002004F00BFB00BF00BFEEE162
:1057100005208049088002208874002088610C22BE
:105720007D49042003F07CFE052008F087FD0C2253
:105730007A49042003F074FE052008F07FFD0C2256
:105740008049042003F06CFE052008F077FD0C2250
:105750007449042003F064FE052008F06FFD0C225C
:105760007949042003F05CFE052008F067FD0B2258
:105770007649042003F054FE052008F05FFD0C225A
:105780007349042003F04CFE052008F057FD00BFCC
:10579000012068490860322008F050FD0020664969
:1057A000C1F8B00200BF5A48807B09287DD2DFE8EB
:1057B00000F0800514233241505F6D0042F21070FA
:1057C00053494860084640685249486008460521E8
:1057D0004268002004F0A4FA85E044F620604C49B9
:1057E0004860084640684B494860084605214268C1
:1057F000002004F095FA76E047F2305044494860C2
:105800000846406843494860084605214268002030
:1058100004F086FA67E049F640403D494860084692
:1058200040683C494860084605214268002004F071
:1058300077FA58E04CF250303549486008464068E5
:1058400034494860084605214268002004F068FA9F
:1058500049E04EF660202E494860084640682D49D0
:105860004860084605214268002004F059FA3AE0F1
:10587000324827494860084640682649486008463B
:1058800005214268002004F04BFA2CE02C48204906
:105890004860084640681F4948600846406841F231
:1058A000883142180521002000E002E004F038FAB7
:1058B00019E0174840681749486015484068204972
:1058C000884209D11348406841F2883142180521C5
:1058D000002004F025FA05E00E480521426800206A
:1058E00004F01EFA00BF00BF01E10620094908804C
:1058F00003208874002088610C220749042003F0EB
:105900008FFD052008F09AFC0C2223E0BC0100204A
:105910006801002024000020C0F30008EBF200081A
:1059200024F300083CF3000818F300082CF50008E5
:1059300058F50008B08240420080404270110100DA
:10594000F824010030F300080CF3000837F50008D4
:1059500064F500086749042003F062FD052008F0A3
:105960006DFC0C226449042003F05AFD052008F068
:1059700065FC0C226149042003F052FD052008F06B
:105980005DFC0C225E49042003F04AFD052008F06E
:1059900055FC0B225B49042003F042FD052008F072
:1059A0004DFC0C225849042003F03AFD052008F074
:1059B00045FC00BF012055490860322008F03EFC3C
:1059C00000205349C1F8B00200BF5248807B09282B
:1059D0007FD2DFE800F07E0514233241505F6F0074
:1059E0004FF4FA704B498881084680894A4988817A
:1059F000084682890521002004F092F974E04FF4F2
:105A000061704449888108468089434988810846F5
:105A100082890521002004F083F965E040F21450EA
:105A20003C498881084680893B49888108468289AB
:105A30000521002004F074F956E040F2A4603549D5
:105A400088810846808934498881084682890521F1
:105A5000002004F065F947E040F634002D498881C4
:105A6000084680892C4988810846828905210020C2
:105A700004F056F938E040F6C410264988810846FB
:105A8000808925498881084682890521002004F003
:105A900047F929E040F6B8301E49888108468089D8
:105AA0001D498881084682890521002004F038F9C3
:105AB0001AE00EE040F6AC5016498881084680890D
:105AC00015498881084682890521002004F028F9BB
:105AD0000AE010488089104988810846828905219A
