:020000040800F2
:1000000030D401205D020008CD7F0008155500089E
:100010009D7B0008051100086D9800080000000095
:100020000000000000000000000000009D0100082A
:10003000C516000800000000F90100081587000837
:100040008102000881020008810200088102000884
:100050008102000881020008810200088102000874
:10006000810200088102000881020008351300089F
:1000700045130008551300086513000875130008A0
:10008000851300089513000881020008810200080A
:100090008102000881020008810200087122000824
:1000A0003D8700084D870008810200088102000892
:1000B0005D8700086D8700087D87000881020008C1
:1000C0008102000881020008810200088102000804
:1000D000810200084D950008CD9500084D96000856
:1000E000810200088102000881020008DD87000803
:1000F000ED8700088102000881020008A5130008AE
:1001000081020008810200088D8700088102000832
:10011000658E0008E58E00089D870008AD87000801
:1001200081020008B5130008C51300088102000809
:100130008102000881020008810200088102000893
:100140008102000881020008810200088102000883
:1001500081020008D5130008E5130008CD960008B9
:100160008102000881020008810200088102000863
:1001700081020008810200088102000800000000DE
:100180008102000881020008DFF80CD000F036FD83
:1001900000480047A1D6000830D401202C4B196834
:1001A0000868B0E8F04F80F30988BFF36F8F4FF015
:1001B000000080F3118870470000000008480068C4
:1001C000006880F308884FF0000080F3148862B65E
:1001D00061B6BFF34F8FBFF36F8F00DF00BF00BF6B
:1001E00008ED00E0DFF80C00016841F470010160E7
:1001F000704700BF88ED00E0EFF30980BFF36F8F19
:10020000134B1A681EF0100F08BF20ED108A20E96A
:10021000F04F106009B44FF0500080F31188BFF325
:100220004F8FBFF36F8F0FF043F84FF0000080F354
:10023000118809BC19680868B0E8F04F1EF0100F6B
:1002400008BFB0EC108A80F30988BFF36F8F704746
:1002500080020020EFF30580704700000948016824
:1002600041F4700101600848804708480047FEE7F4
:10027000FEE7FEE7FEE7FEE7FEE7FEE7FEE7FEE756
:10028000FEE7000088ED00E02987000889010008EA
:100290002DE9F05F0546002092469B4688460646BB
:1002A000814640241BE0284641464746224600F04E
:1002B00050FB53465A46C01A914110D31146184676
:1002C000224600F037FB2D1A67EB01084F46224605
:1002D0000120002100F02EFB17EB00094E41201EEB
:1002E000A4F10104DFDC484631462A464346BDE816
:1002F000F09F0000004870476805010810B50446EB
:10030000FFF7F8FF0068005D00F0010010BD40EA53
:1003100001039B0703D009E008C9121F08C0042A83
:10032000FAD203E011F8013B00F8013B521EF9D26A
:100330007047D2B201E000F8012B491EFBD2704792
:100340000022F6E710B513460A4604461946FFF7A1
:10035000F0FF204610BD30B505462A460B4612F880
:10036000010B13F8014B08B1A042F8D01CB10028D2
:1003700002D06D1CF1E7284630BD421C10F8011B6D
:100380000029FBD1801A70470FB400B58DB010A9B9
:1003900009900B9000914FF0FF300A9000200C90D4
:1003A00005480690054807906A4609A80F9900F08D
:1003B00007FB0DB05DF814FBDD090008FB09000820
:1003C0002DE9FF5F1D464FF0FF3BD5E90146914601
:1003D0005F464FF00008A9697F1C01988847296A89
:1003E000824688470028F6D1BAF1FF3F0CD024F4AA
:1003F000C064002E19DD600614D5BAF12B0F09D0A8
:10040000BAF12D0F0ED103E0584604B0BDE8F09FBD
:1004100044F48064A9697F1C01988847761E82464F
:10042000002E02DDBAF1300F03D0B9F1000F26D053
:1004300032E0A969761E44F400747F1C0198884755
:100440008246002E05DDBAF1780F06D0BAF1580FBA
:1004500003D0B9F1000F10D01EE0B9F1000F02D0A7
:10046000B9F1100F18D1A969761E24F400747F1C0D
:10047000019888478246102002E0082000E00A2008
:10048000814609E008FB0908A969761E44F4007456
:100490007F1C019888478246002E05DD494650465C
:1004A00000F079FA0028EDDAE96901988847A0059B
:1004B00002D46FF00100A8E7E00725D1600613D54C
:1004C000600502D5C8F1000000E0404629680A1D19
:1004D0002A600968220501D5087015E0220701D5B8
:1004E000088011E008600FE02868011D296000689D
:1004F000210502D580F8008006E0210702D5A0F88A
:10050000008001E0C0F8008038467EE72DE9FE4F0C
:10051000804681EA0300C00F0C46009021F00041A4
:1005200023F00045B8EB0200A94105D24046214620
:1005300090461C460B46024623F00040104347D02D
:10054000270DC7F30A00C3F30A510290401A019025
:1005500040286BDAC3F3130040F4801B00989246E6
:1005600020B10023D2EB030A63EB0B0B0198594631
:10057000C0F14002504600F0DDF906460D465046F7
:100580005946019A00F0F5F910EB0800614100248A
:1005900087EA115284EAE7731A4340D0009A62B3A3
:1005A000019A012A4FEA075215DC001B61EB020198
:1005B0004FF0004202EA0752CDE90042001C41F52B
:1005C000801132462B4600F06FFA03B0BDE8F08F81
:1005D00040462146F9E7001B61EB0201001C41F592
:1005E000801300185B412018A2F5001747EB0301A8
:1005F00040EAD570B6196D4111E06D084FEA360634
:1006000045EAC0754FEA0752001B61EB0201001C6E
:1006100041F5801149084FEA300000195141324636
:100620002B4603B0BDE8F04F00F02FBA009801222E
:1006300040000023D0EB020263EBE07300982146F8
:100640004FEAE074B8EB000061EB0401E9E783F0E6
:1006500000435BE781F0004158E72DE9FE4F81EA56
:10066000030404F0004421F0004100944FF0000B1B
:1006700023F0004350EA01045ED052EA03045BD049
:10068000C3F30A54C1F30A552C44A4F2F334019481
:10069000A0FB0254C1F3130141F48011C3F313030F
:1006A00043F4801301FB024400FB034E840A970AC3
:1006B00044EA815447EA8357A4FB076802958D0AF0
:1006C00005FB07854FEA932C04FB0C542705029D7C
:1006D0004FEA065847EA1637B5EB08056EEB070CEC
:1006E000870E920E47EA811742EA8312A7FB0201A6
:1006F000B6EB0B0164EB00042B0D43EA0C335E18E0
:1007000044EB1C50DA465146E7FB0201C5F31304E3
:100710004FEA0B3343EA14534FEA0432019C43EA95
:100720000603A4F10C040294009CCDE900B400F08F
:10073000BBF903B0BDE8F08F00200146F9E72DE9D1
:10074000F04D81EA030404F0004B21F0004514460B
:100750004FF0000A23F0004150EA050220D054EA8D
:1007600001021DD0C5F30A570246C5F31303C1F3B6
:100770001300C1F30A5640F4801543F48013A7EB2D
:100780000608101BD64608F2FD3873EB050002D3AD
:1007900008F1010801E092185B41B8F1000F03DA9B
:1007A00000200146BDE8F08D00204FF48011064680
:1007B00084460EE0171B73EB050705D3121B63EB92
:1007C000050306434CEA010C49084FEA3000921831
:1007D0005B4150EA0107EDD152EA030012D082EAF0
:1007E000040083EA0501084305D0101BAB4106D283
:1007F0000122002306E000224FF0004302E06FF0E8
:10080000010253101AEB06004CEB085110EB0A00E2
:1008100041EB0B01BDE8F04D00F037B90EB540F2E9
:10082000334102910021CDE900110A460B4600F048
:100830003BF903B000BD70B5C1F30A5201F00045A9
:100840000024C1F3130140F2FF3341F480119A42B6
:1008500001DA002070BD40F233439A42A2F23342E3
:1008600003DC524200F075F800E090402C43F1D0D8
:10087000404270BDC1F30A5210B5C1F3130140F2FA
:10088000FF3341F480119A4201DA002010BD40F29A
:1008900033439A42A2F2334203DC524200F059F849
:1008A00010BD904010BD00F0004230F000400AD072
:1008B000C10D01F56071C0F3160042EA0151C20892
:1008C00040071143704700200146704730B5041EB1
:1008D00071F1000404DB4FF00044404264EB01017D
:1008E000141E73F1000405DB1C464FF00043524216
:1008F00063EB04038B4208BF824230BD01F000432A
:1009000030B421F0004150EA010206D00A0DA2F5F0
:100910006072C1F31301002A02DC30BC0020704772
:10092000440F44EAC104C100E01830BC00EBC250DF
:1009300000F074B8202A04DB203A00FA02F100200B
:1009400070479140C2F1200320FA03F3194390400D
:100950007047202A04DB203A21FA02F00021704778
:1009600021FA02F3D040C2F1200291400843194617
:100970007047202A06DBCB17203A41FA02F043EAFF
:10098000E07306E041FA02F3D040C2F12002914048
:100990000843194670473A2800D2303820F0200228
:1009A000412A01D3A2F13700884201D34FF0FF3032
:1009B00070470000026811441378016018467047C0
:1009C000D16004495161044911620021116111464D
:1009D00000F026B9B5090008FD020008426842B1DE
:1009E000016811F8013B23B1521EC0E900121846FC
:1009F00070470121C160881E704742685AB1C368C0
:100A0000016843B983688B4205D0491E521CC0E976
:100A10000012002070474FF0FF3070470029A8BF38
:100A20007047401C490008BF20F00100704710B417
:100A3000B0FA80FC00FA0CF050EA010404BF10BCCC
:100A4000704749B1CCF1200421FA04F411FA0CF1F9
:100A500018BF012121430843A3EB0C01CB1D4FEA32
:100A600000614FEA102042BF002010BC704700EB2D
:100A7000C35010440029A4BF10BC7047401C49005B
:100A800008BF20F0010010BC704710B5141E73F1B0
:100A9000000408DA401C41F1000192185B411A433E
:100AA00001D120F0010010BD2DE9F04D92469B468A
:100AB00011B1B1FA81F202E0B0FA80F22032904630
:100AC000FFF738FF04460F4640EA0A0041EA0B01EF
:100AD00053465A46084313D0114653EA010019D031
:100AE000C8F140025046FFF734FF05460E46504617
:100AF00059464246FFF71EFF084305D0012004E097
:100B000020463946BDE8F08D0020054346EAE076F0
:100B10002C4337430A986305E40AA0EB080000223F
:100B2000FD0A44EA47540A3002D500200146E9E7AD
:100B3000010510196941DDE9084500196941BDE861
:100B4000F04DA2E72DE9F041054621F000400C46AA
:100B5000284309D0C4F30A5040F23341884205DDEE
:100B600028462146BDE8F0812846FBE740F2FE31E9
:100B7000884210DC0CDB4FEA043040EA155050EAA2
:100B8000053105D0104804F0004101430020E9E799
:100B900000200146E6E7A0F233404642C6F140029B
:100BA00028462146FFF7C6FE0746884628462146C6
:100BB0003246FFF7CEFE43463A46FFF766FF32461F
:100BC000BDE8F041FFF7B6BE0000F03F30B5041EAF
:100BD00071F1000404DB4FF00044404264EB01017A
:100BE000141E73F1000405DB1C464FF00043524213
:100BF00063EB0403994208BF904230BD064C074D99
:100C000006E0E06840F0010394E8070098471034DC
:100C1000AC42F6D3FFF7BCFA6C0501088C0501085D
:100C20002DE9F34F8BB04FF0000801F10C000C469A
:100C30004FF0010B46460DF1080A0190626901214F
:100C400001989047051E2DD0252D2CD0216A88476C
:100C5000C0B16269012101989047216A8847002844
:100C6000F7D1411E62690198904700E0761CA169A6
:100C70000B988847216A88470028F7D1E1690B98CB
:100C80008847DBE7A1690B9888470746A84201D14E
:100C9000761CD3E7E1690B9888477F1C02D1B8F135
:100CA000000F6FD046E1002762693D463946019842
:100CB00090472A2804D162690121019890470125B3
:100CC000DFF884926269012101989047A0F1300118
:100CD0000A290AD24F45E5DC07EB870100EB410703
:100CE000303FDFD445F01005ECE7E90601D46FF0A2
:100CF00000476C280AD04C2814D0682815D06A28E0
:100D00000DD074281CD07A281AD01DE06269012108
:100D1000019890476C2802D045F0040514E045F096
:100D200002050DE045F020050AE062690121019805
:100D30009047682802D045F0080505E045F40065B5
:100D40006269012101989047C4E9015765283DD0A7
:100D500019DC58287AD00CDC452837D004DC25284B
:100D600026D0412831D131E046282FD047282CD138
:100D70002CE05B2877D0612828D063287CD06428B9
:100D800023D15AE0D0E06F2848D008DC66281DD077
:100D900067281BD0692821D06E2816D127E070283B
:100DA00045D0732868D0752847D078280DD14DE0FC
:100DB000A1690B988847054625283FF469AFE1698A
:100DC0000B9888476D1C3FF46AAFB3E023466A4630
:100DD0006FF001000B99AFF300809EE045F04000FA
:100DE0006060A80723464FF0000236D43EE0E807D3
:100DF0007FF447AF2068011D21600068290501D5F7
:100E000006701BE7290701D5068017E7A90703D558
:100E1000F117C0E9006111E706600FE745F04000F7
:100E20006060A80723464FF0080216D41EE040F683
:100E30000E0125EA0100606016E045F040006060A8
:100E4000A80723464FF00A0207D40FE045F0400000
:100E50006060A80708D5234610226FF001000B99A7
:100E6000AFF3008059E007E0234610226FF0010045
:100E70000B99FFF7A5FA50E04FF000094F464B469B
:100E8000632802D05B2806D040E0E80601D40120A8
:100E9000A06001273AE062690121019890475E282D
:100EA00005D14FF0010962694946019890472169CF
:100EB00039B900210A46534643F82120491C082924
:100EC000FADBB0B3216969B9C11700EBD1625311E4
:100ED0000AEB830122F01F02821A01200B68904066
:100EE00003430B6062690121019890475D28E8D1B6
:100EF000B9F1000F09D00020514651F82020D2430B
:100F000041F82020401C0828F7DB02AB224600975E
:100F10006FF001000B99AFF3008000280CDA401C41
:100F200008D1BBF1000F05D04FF0FF300DB0BDE888
:100F3000F08FFFE74046F9E7E90701D108F1010822
:100F400006444FF0000B79E6CCCCCC0C70B58C1875
:100F500010F8015B15F0070301D110F8013B2A11CD
:100F600006D110F8012B03E010F8016B01F8016BBA
:100F70005B1EF9D12B0705D40023521E0DD401F8B6
:100F8000013BFAE710F8013BCB1A921C03E013F87F
:100F9000015B01F8015B521EF9D5A142D8D30020B4
:100FA00070BD000055494A6822F440324A604A68E0
:100FB00043681A434A600268526822F480720368E8
:100FC0005A6002685368026943EA022203685A6061
:100FD0000268526822F0407203685A6002685268E0
:100FE00083681A4303685A600268926822F40062B8
:100FF00003689A6002689268C3681A4303689A603B
:101000003F4B826A9A4218D00268926822F070625E
:1010100003689A6002689268836A1A4303689A6058
:101020000268926822F0405203689A6002689268EF
:10103000C36A1A4303689A600BE00268926822F060
:10104000706203689A600268926822F040520368F6
:101050009A600268926822F0020203689A6002684D
:101060009368027E43EA420203689A602022125C7F
:10107000A2B10268526842F4006203685A600268D2
:10108000526822F4604203685A6002685368426AF8
:10109000521E43EA423203685A6005E00268526811
:1010A00022F4006203685A600268D26A22F4700275
:1010B0000368DA620268D36A828B521E43EA0252E4
:1010C0000368DA620268926822F4007203689A6028
:1010D0000268936890F8302043EA422203689A60DD
:1010E0000268926822F4806203689A6002689368DA
:1010F000426943EA822203689A60704700230140F4
:101100000100000F00BFFEE710B50446072C53D2C4
:10111000DFE804F05204111E2B384500FF21284857
:10112000FFF70EF9002027490880FF2224492648AE
:1011300003F074FF41E0FF212448FFF701F900208C
:1011400023490880FF222149224803F067FF34E049
:10115000FF212148FFF7F4F8002020490880FF22F2
:101160001D491F4803F05AFF27E0FF211D48FFF7E4
:10117000E7F800201C490880FF221A491B4803F0A9
:101180004DFF1AE0FF211A48FFF7DAF8002019494D
:101190000880FF221649184803F040FF0DE0FF21A8
:1011A0001648FFF7CDF8002015490880FF221349A3
:1011B000144803F033FF00E000BF00BF10BD000083
:1011C0006E2100204C020020B81900206D22002062
:1011D00050020020FC1900206C2300205402002043
:1011E000401A0020701F002044020020841A0020B2
:1011F0006F20002048020020C81A00206B24002025
:10120000580200200C1B00202DE9F04106460D4637
:101210001446072E72D2DFE806F0710416283A4C05
:101220005E0038480088A04201DAFF2000E0204636
:1012300007463A4634492846FFF769F8A74201DADB
:101240002020E8555BE031480088A04201DAFF2009
:1012500000E0204607463A462D492846FFF757F852
:10126000A74201DA2020E85549E02A480088A04238
:1012700001DAFF2000E0204607463A462649284684
:10128000FFF745F8A74201DA2020E85537E0234868
:101290000088A04201DAFF2000E0204607463A46D7
:1012A0001F492846FFF733F8A74201DA2020E85506
:1012B00025E01C480088A04201DAFF2000E020461B
:1012C00007463A4618492846FFF721F8A74201DAAF
:1012D0002020E85513E015480088A04201DAFF20DD
:1012E00000E0204607463A4611492846FFF70FF826
:1012F000A74201DA2020E85501E0FFE700BF00BF68
:10130000BDE8F0814C0200206E2100205002002038
:101310006D220020540200206C2300204402002093
:10132000701F0020480200206F200020580200207B
:101330006B24002010B5024801F0EAFA10BD00004D
:10134000501E002010B5024801F0E2FA10BD000066
:10135000D01C002010B5024801F0DAFA10BD0000E0
:10136000901D002010B5024801F0D2FA10BD000017
:10137000301D002010B5024801F0CAFA10BD00006F
:10138000F01D002010B5024801F0C2FA10BD0000A7
:10139000101C002010B5024801F0BAFA10BD000080
:1013A000701C002010B5024801F0B2FA10BD000018
:1013B000B01E002010B5024801F0AAFA10BD0000CE
:1013C000101F002010B5024801F0A2FA10BD000065
:1013D000501B002010B5024801F09AFA10BD000021
:1013E000FC25002010B5024801F092FA10BD000063
:1013F000B01B00200146087810381823B0FBF3F228
:101400000848805CC865032A05D908686FF309009D
:10141000001D886503E008686FF309008865886D22
:1014200070470000B5040108014600208A6A8B69F4
:10143000CBB932B1012A0DD0022A03D0032A10D130
:101440000EE000BFCB6A03F08073B3F1807F00D160
:10145000012007E0CB6AB3F1C07F00D1012001E099
:1014600000E000BF34E08B69B3F5005F1AD132B100
:10147000012A07D0022A03D0032A11D10AE000BFB3
:1014800001200EE0CB6A03F08073B3F1807F00D1BE
:10149000012006E0CB6AB3F1C07F00D1012000E05B
:1014A00000BF15E032B1012A05D0022A04D0032A78
:1014B0000CD103E000BF00BF012008E0CB6A03F0BD
:1014C0008073B3F1807F00D1012000E000BF00BF36
:1014D000704730B50468246824F4802405682C60C3
:1014E000046863608468402C04D10468A2600468C6
:1014F000E16003E00468A1600468E26030BD0000C0
:1015000040F2DC500DF09EFD00BF00F013FD38B13D
:1015100066480078401EC0B2644908700028F4D1C3
:101520006248007810B1012061490875A72140F296
:10153000E73007F01DFCB8E05E480088401C5D49BC
:1015400008805D480078401C5B4908705848008A54
:1015500058490988884238DA00205649088054489A
:10156000008807282FD2DFE800F02E040B12192084
:1015700027004F4901224868114606F073FC23E01A
:101580004B4902228868012106F00AFB1CE0484909
:1015900088890322012106F0B7FB15E044490022A7
:1015A0004868114606F05EFC0EE04149002288685A
:1015B000114606F0F5FA07E03D49888900221146F8
:1015C00006F0A2FB00E000BF00BF3948807B3A492B
:1015D0000978884204DA00203749087000F0EEFCF0
:1015E0003648C07E002857D035480078002853D1AF
:1015F0000120334908702E480088072814D2DFE8FC
:1016000000F01304080C101112000420284908806F
:101610000BE005202649088007E0062024490880C1
:1016200003E002E001E000E000BF00BF20480088C6
:1016300007282FD2DFE800F02E040B121920270014
:101640001B4901224868114606F00CFC23E01849AA
:1016500002228868012106F0A3FA1CE01449888957
:101660000322012106F050FB15E0114900224868D1
:10167000114606F0F7FB0EE00D490022886811467E
:1016800006F08EFA07E00A4988890022114606F022
:101690003BFB00E000BF05E00848C07E10B9002019
:1016A0000749087001200DF0CDFC45E758010020E6
:1016B000200000205601002059010020C001002018
:1016C0005A010020704700003148007800285DD1A1
:1016D0003048C078012804D12F4908702F4908707C
:1016E00054E02C48C078022806D101202A4908700D
:1016F00002202A49087049E02648C078032806D10C
:101700000120254908700320244908703EE0214843
:10171000C078042806D101201F49087006201F49FF
:10172000087033E01B48C078052806D101201A490B
:10173000087007201949087028E01648C078062864
:1017400006D10120144908700820144908701DE0D2
:101750001048C078072806D101200F4908700920D9
:101760000E49087012E00B484078012805D10A495B
:10177000087004200949087008E0064880780128AC
:1017800004D105490870052004490870704700001D
:10179000A8010020A4010020A9010020AE01002022
:1017A00010B55148007830B101281AD0022835D040
:1017B00003286ED18FE04D48007888B100204B4956
:1017C00008700120484908700620FFF79DFC0020A2
:1017D00047490870FF214748FEF7B2FD06F07CF844
:1017E00080E043480078012811D043480078401E2B
:1017F000C0B24149087050B10846007868B9FF206E
:1018000008700020384908703849087005E0002049
:101810003949087002203449087063E0374800886D
:10182000002844D0FF2233490620FFF7EDFC33485F
:10183000018830480CF04FFF90B900202B49087008
:10184000FF212C48FEF77CFD00202D490880062052
:10185000FFF75AFC08F016FE00202349087039E013
:1018600028480078401C274908700846007803285B
:1018700010DB00200870FF211E48FEF761FD0020EC
:101880001A4908700A202049C870042048708870DE
:1018900003E026E00120154908700020184908805F
:1018A0000620FFF731FC00200F49087012E01448B1
:1018B0000088401C1249088008460088642809DB1B
:1018C0000020088009201049C870032048708870E3
:1018D0000549087006E000200449087002490870B4
:1018E00000E000BF00BF10BDA8010020A90100203A
:1018F0005A02002018140020AF01002058020020D6
:10190000AA010020AC010020A401002010B5F84974
:10191000086805F0D5FF0A200DF094FB0C22F5496C
:10192000042008F095F90A200DF08CFBF248807B2A
:1019300009286ED2DFE800F06D05396EA2D6FEFDF3
:10194000FC0042F21070EC49486008464068EB49E0
:1019500048600A200DF076FB0C22E949042008F0CB
:1019600077F942F21070E449886008468068E349DC
:1019700088600A200DF066FB0C22E149042008F083
:1019800067F94FF4FA70DC49888108468089DB49A1
:1019900088810A200DF056FB0C22D949042008F05A
:1019A00057F90A200DF04EFB6DE144F62060D24954
:1019B000486008464068D14948600A200DF042FB63
:1019C0000C22D049042008F043F944F62060CA49AB
:1019D000886008468068C94988600A200DF032FB9B
:1019E0000C22C849042008F033F94FF46170C24951
:1019F000888108468089C14988810A200DF022FB30
:101A00000C22C049042008F023F90A200DF01AFB2B
:101A100039E137E147F23050B7494860084640683D
:101A2000B64948600A200DF00DFB0C22B64904208F
:101A300008F00EF947F23050AF49886008468068D8
:101A4000AE4988600A200DF0FDFA0C22AE49042050
:101A500008F0FEF840F21450A749888108468089B2
:101A6000A64988810A200DF0EDFA0C22A64904202F
:101A700008F0EEF80A200DF0E5FA04E149F64040DE
:101A80009D494860084640689C4948600A200DF01E
:101A9000D9FA0C229D49042008F0DAF849F64040B2
:101AA0009549886008468068944988600A200DF04E
:101AB000C9FA0C229549042008F0CAF840F2A46043
:101AC0008D498881084680898C4988810A200DF0DB
:101AD000B9FA0C228D49042008F0BAF80A200DF05A
:101AE000B1FAD0E04CF25030834948600846406873
:101AF000824948600A200DF0A5FA0C22844904208E
:101B000008F0A6F84CF250307B498860084680689F
:101B10007A4988600A200DF095FA0C227C4904204D
:101B200008F096F840F6340073498881084602E0D0
:101B300076E043E00EE08089704988810A200DF04C
:101B400081FA0C227249042008F082F80A200DF074
:101B500079FA98E04EF66020674948600846406888
:101B6000664948600A200DF06DFA0C22694904208C
:101B700008F06EF84EF660205F498860084680687D
:101B80005E4988600A200DF05DFA0C22614904204C
:101B900008F05EF840F6C4105749888108468089ED
:101BA000564988810A200DF04DFA0C22594904202B
:101BB00008F04EF80A200DF045FA64E056484E4908
:101BC0004860084640684D4948600A200DF03AFADE
:101BD0000C225249042008F03BF84F4846498860DF
:101BE00008468068454988600A200DF02BFA0C22CF
:101BF0004A49042008F02CF840F6B8303E49888164
:101C0000084680893D4988810A200DF01BFA0C2284
:101C10004249042008F01CF80A200DF013FA32E0C3
:101C20003F483549486008464068344948600A20C2
:101C30000DF008FA0C223B49042008F009F8384856
:101C40002D498860084680682C4988600A200DF07C
:101C5000F9F90C223349042007F0FAFF40F6AC50A2
:101C60002549888108468089244988810A200DF009
:101C7000E9F90C222B49042007F0EAFF0A200DF0B5
:101C8000E1F900E000BF00BF1B480078012804D044
:101C9000022851D0032876D176E00C222249042074
:101CA00007F0D6FF0A200DF0CDF90C221F490420C1
:101CB00007F0CEFF0A200DF0C5F90C221C490420C4
:101CC00007F0C6FF0A200DF0BDF90C2219490420C7
:101CD00007F0BEFF0A200DF0B5F90848052142685B
:101CE000002008F0B9FC0A200DF0ACF974E0000007
:101CF000C00100200404010864010020200000202D
:101D0000C4010108D0010108DC010108E801010853
:101D1000F401010800020108701101000C02010821
:101D2000F82401001802010888010108A001010837
:101D30007C0101084F0101080C226C49042007F0C6
:101D400087FF0A200DF07EF90C226949042007F074
:101D50007FFF0A200DF076F90C226649042007F077
:101D600077FF0A200DF06EF90C226349042007F07A
:101D70006FFF0A200DF066F9604805218268002097
:101D800008F06AFC28E026E00C225D49042007F0F8
:101D90005FFF0A200DF056F90C225A49042007F083
:101DA00057FF0A200DF04EF90C225749042007F086
:101DB0004FFF0A200DF046F90C225449042007F089
:101DC00047FF0A200DF03EF94C488289052100208A
:101DD00008F042FC00E000BF00BF4D48007E4C49C7
:101DE00088750846807D08287DD2DFE800F07C04F5
:101DF00015263748596A0C224649042007F028FF67
:101E00000120454988704FF4FA700DF01BF94048E5
:101E1000007E4149C87067E00C224049042007F069
:101E200017FF01203C4988704FF4FA700DF00AF951
:101E30003748007E3849C87056E00C2238490420E3
:101E400007F006FF0120344988704FF4FA700DF056
:101E5000F9F82F48007E3049C87045E00C2231491E
:101E6000042007F0F5FE01202B4988704FF4FA702A
:101E70000DF0E8F82648007E2749C87034E00C22AF
:101E80002949042007F0E4FE0120234988704FF41B
:101E9000FA700DF0D7F81E48007E1F49C87023E085
:101EA0000C222249042007F0D3FE01201A49887031
:101EB0004FF4FA700DF0C6F81548007E1649C87048
:101EC00012E00C221A49042007F0C2FE0120124938
:101ED00088704FF4FA700DF0B5F80D48007E0E4989
:101EE000C87001E0FFE700BF00BF10BD940101080A
:101EF000A0010108700101084F0101082000002025
:101F000088010108AC0101087C0101085B0101089E
:101F1000C00100206C020108A40100207802010821
:101F200084020108900201089C020108A80201082D
:101F3000B402010810B501244FF4E13007F0FEFCB3
:101F400014200DF07FF8FF211948FEF7F9F912224D
:101F50001849022007F07CFEC8200DF073F81648DF
:101F60000088F8B1FF2212490220FFF74DF910480E
:101F7000007883280DD10E4840790C2809D10C48EF
:101F8000C07C312805D10024FF210948FEF7D8F98B
:101F900004E00124FF210648FEF7D2F90220FFF7F2
:101FA000B3F803E00220FFF7AFF80124204610BD8C
:101FB00054000020420000205002002010B52DEDFA
:101FC000048B9D48007830B101280ED002282BD018
:101FD000032877D119E19948007828B10020974962
:101FE000087001209449087021E195480078012883
:101FF00011D094480078401EC0B29249087050B188
:102000000846007878B9FF20087000208A490870D7
:102010008A49087007E000208A49087088490870DA
:1020200002208549087002E187480088002876D0A0
:10203000FF2286490220FFF7E7F88348018883489A
:102040000BF0B7FB00286BD18048C07A002855D030
:102050007E48407C00284BD17C48C0797B498979F7
:1020600040EA01207A4988617848C07A4F2811D126
:102070008869FEF7D3FB41EC190B9FED760B53EC0F
:10208000102BFEF7EAFA41EC180BFEF7F3FB704950
:1020900088610BE06E48806940B16D48806900EB53
:1020A00080001E2101EB4000694988616848806911
:1020B00048B100206949087006F074FE01206449A7
:1020C000C87455E0B2E06648806820B16348007883
:1020D000401C6249087006F065FE604800780A28D6
:1020E00046DD00205D49087004205949C8743FE06E
:1020F00006F058FE06205649C87439E05348C07AA5
:1021000080BB5248407C082827D2DFE800F0040A50
:102110000E12161A1E2201204D49C8741EE060E0FE
:1021200039E002204A49C87418E009204849C874B7
:1021300014E00C204649C87410E008204449C874D3
:102140000CE00A204249C87408E003204049C874E2
:1021500004E00B203E49C87400E000BF00BF06F059
:1021600021FE05E0FFE706F01DFE06203849C87491
:10217000002032490870FF213448FEF7E1F806F0EC
:1021800011FE0020374908800220FEF7BDFF002025
:10219000294908704BE034480078401C32490870E7
:1021A0000846007801280DDB06202949C874002064
:1021B0002D490870FF212548FEF7C2F800201F496D
:1021C000087002E001201D49087006F0EBFD0020B8
:1021D000244908800220FEF797FF00201649087066
:1021E00012E02048008864280EDB00201D4908808A
:1021F0001E480078401C1D490870084600780228D7
:1022000002DB03200C49087011E000201749087018
:1022100006F0C8FD00201349088007200C49C87447
:102220000020064908700449087000E000BF00BFA4
:10223000BDEC048B10BD00003C0000203D000020E0
:1022400052020020530100205002002054000020C0
:102250002000002033333333333315405401002042
:10226000C00100203E00002041000020400000206E
:1022700010B500BF5021EFF3118081F31188BFF337
:102280004F8FBFF36F8F00BF0446802000F000FE29
:10229000802006490860402000F0FAFD40200349F4
:1022A0000860204680F3118800BF10BD143C014037
:1022B00008F072FA08F00AF8532140F2E73006F00D
:1022C000B5FC532140F2E73006F00EFDDFED0F0ABA
:1022D0009FED0F0A0F480BF0C9F99FED0F3B9FEDE3
:1022E000102B9FED0D1B9FED100B11480AF00EFFF8
:1022F0000F480AF03DFF08E008F074FA08F082FB8E
:1023000008F084FA01200CF09DFEF5E70040B5448A
:10231000CDCCCC3EB80100200000000000002440DD
:102320007B14AE47E17A843F00000000000000000B
:102330004015002038B502460020009000BF92F8FA
:102340003C00012801D1022038BD012082F83C0068
:1023500000BF0868092816D91068C0680C780A3CC4
:1023600004EB44050724AC40A0431468E0600C78FB
:102370000A3C04EB44048868A0401468E4682043E5
:102380001468E06013E0106800690C7804EB440501
:102390000724AC40A043146820610C7804EB44048B
:1023A0008868A04014682469204314682061486844
:1023B000072817D21068406B0C79641E04EB840563
:1023C0001F24AC40A04314686063088880B20C7975
:1023D000641E04EB8404A0401468646B20431468FA
:1023E000606331E048680D2817D21068006B0C79E3
:1023F000E41F04EB84051F24AC40A0431468206351
:10240000088880B20C79E41F04EB8404A0401468AF
:10241000246B20431468206316E01068C06A0C79AE
:102420000D3C04EB84051F24AC40A0431468E0621B
:10243000088880B20C790D3C04EB8404A040146839
:10244000E46A20431468E062194B1A4C1068A042F9
:1024500006D10868122803D1586840F480005860FB
:10246000144C1068A0421CD10868102802D00868DB
:10247000112816D1586840F40000586008681028E8
:102480000FD10D4800680D4CB0FBF4F000EB80005C
:102490004000009002E00098401E00900098002844
:1024A000F9D100BF002082F83C0000BF00BF4BE71D
:1024B00000230140002001400400002040420F00A2
:1024C00001460868C06C704770B5044600250CB919
:1024D000012070BD1549A06A884200D000BF206C61
:1024E00030B9204600F024F80020606484F83C00F5
:1024F000206C00F0100088B9206C20F4885040F067
:10250000020020642046FEF74DFD00206064206C30
:1025100020F0020040F00100206400E0012500BF2F
:10252000002084F83C0000BF2846D2E70100000FDD
:1025300010B586B004461B492068884230D100BFE0
:1025400000BF002000901848006840F40070164951
:1025500008600846006800F40070009000BF00BFEB
:1025600000BF00BF00BF002000900F481438006873
:1025700040F002000C49143908600846006800F079
:102580000200009000BF00BF00BF012001900320A7
:1025900002900020039001A9044800F087FC00BFCE
:1025A00006B010BD00210140443802400004024042
:1025B00070B504460D4600262068806800F48060EF
:1025C000B0F5806F11D12068806800F48070B0F59C
:1025D000807F0AD1206C40F02000206400BF0020E2
:1025E00084F83C0000BF012070BD00F075FD064678
:1025F00018E0681CB0B125B100F06EFD801BA84248
:1026000010D92068006800F0020002280AD0206C6F
:1026100040F00400206400BF002084F83C0000BFAC
:102620000320E1E72068006800F002000228E0D102
:102630006FF0120021680860206C40F40070206484
:102640002068806800F04050B8B9207EA8B92068A2
:10265000C06A00F4700020B12068806800F48060D7
:1026600058B9206C20F480702064206C00F48050F5
:1026700018B9206C40F0010020640020B4E700008D
:1026800008B501460020009000BF91F83C000128E9
:1026900001D1022008BD012081F83C0000BF08687C
:1026A000806800F00100A0B90868806840F001006F
:1026B0000B6898603F4800683F4BB0FBF3F000EBBD
:1026C0004000009002E00098401E00900098002812
:1026D000F9D10868806800F00100002860D0086C1B
:1026E00040F20163984340F48070086408684068D1
:1026F00000F4806028B1086C20F4005040F4805051
:102700000864086C00F48050B0F5805F04D1486C18
:1027100020F00600486401E00020486400BF00206B
:1027200081F83C0000BF254A6FF022000B6818605A
:10273000506800F01F0018BB214B0868984213D066
:10274000204B0868984204D1101D006800F01F005B
:1027500050B11D4B086898422AD11848001D0068E6
:1027600000F01F00102823D20868806800F0405055
:10277000F0B90868806840F080400B68986017E006
:102780000F4B0868984213D10868806800F04050E9
:1027900070B90868806840F080400B68986007E076
:1027A000086C40F010000864486C40F00100486478
:1027B00000206FE70400002040420F00002301408A
:1027C00000200140002101400022014070B5044674
:1027D000A56D00F081FC064694F83500022808D06B
:1027E0008020606500BF002084F8340000BF012015
:1027F00070BD2068006820F016002168086020681D
:10280000406920F0800021684861206C08B9A06C04
:1028100028B12068006820F008002168086020685E
:10282000006820F00100216808600FE000F054FC0F
:10283000801B05280AD92020606500BF002084F88D
:10284000340000BF032084F83500D1E72068006819
:1028500000F001000028E9D194F85C103F20884086
:10286000A86000BF002084F8340000BF012084F875
:1028700035000020BCE7014691F83500022803D05E
:102880008020486501207047052081F835000868E0
:10289000006820F001000A6810600020F3E770B5BE
:1028A00004460CB9012070BD94F83500022800D10F
:1028B000F9E72068006820F0010021680860002026
:1028C0002168086021684860216888602168C860C4
:1028D000216808612120216848612046FEF78AFDB1
:1028E00005460020E06320646064A064E064206525
:1028F00094F85C103F208840A8600020606584F850
:10290000350000BF84F8340000BF00BFCBE70000F3
:10291000F8B50446002000908C4800684FF416512A
:10292000B0FBF1F7A56D2E6894F85C100820884084
:10293000304098B12068006800F0040070B1206851
:10294000006820F004002168086094F85C100820FA
:102950008840A860606D40F00100606594F85C10EC
:1029600001208840304068B12068406900F0800054
:1029700040B194F85C1001208840A860606D40F080
:102980000200606594F85C1004208840304068B113
:102990002068006800F0020040B194F85C10042048
:1029A0008840A860606D40F00400606594F85C1099
:1029B00010208840304078B32068006800F008009C
:1029C00050B394F85C1010208840A860206800681C
:1029D00000F4802080B12068006800F4002028B94D
:1029E000206CC8B12046216C884715E0A06C98B1D6
:1029F0002046A16C88470FE02068006800F48070D2
:102A000028B92068006820F0080021680860206C60
:102A100010B12046216C884794F85C102020884033
:102A20003040002865D02068006800F010000028C1
:102A30005FD094F85C1020208840A86094F835009E
:102A4000052828D12068006820F016002168086059
:102A50002068406920F0800021684861206C08B936
:102A6000A06C28B12068006820F008002168086088
:102A700094F85C103F208840A86000BF002084F8D4
:102A8000340000BF012084F83500206D10B12046CD
:102A9000216D8847F8BD2068006800F4802080B16F
:102AA0002068006800F4002028B9606C10B120464E
:102AB000616C88471DE0E06BD8B12046E16B884728
:102AC00017E02068006800F4807068B9206800682A
:102AD00020F010002168086000BF002084F8340056
:102AE00000BF012084F83500E06B10B12046E16B97
:102AF0008847606D38B3606D00F00100F0B10520CB
:102B000084F835002068006820F001002168086022
:102B100000BF0098401C0090B84200D905E0206832
:102B2000006800F001000028F3D100BF00BF0020C2
:102B300084F8340000BF012084F83500E06C10B147
:102B40002046E16C884700BFA4E700000400002095
:102B50002DE9F0410446002500F0BEFA074614B9FD
:102B60000120BDE8F081606A00B100BF00BF002015
:102B700084F8340000BF022084F835002068006823
:102B800020F00100216808600AE000F0A5FAC01BEF
:102B9000052805D920206065032084F83500E0E78A
:102BA0002068006800F001000028EED12068056868
:102BB00021480540D4E901010843E168084321693F
:102BC000084361690843A1690843E1690843216A30
:102BD00008430543606A042803D1D4E90B01084384
:102BE0000543206805602068456925F00705606A8F
:102BF0000543606A04280DD1A06A0543E06A48B124
:102C00002046FEF711FC28B140206065012084F8C1
:102C10003500A6E7206845612046FEF7EBFB064637
:102C200094F85C103F208840B0600020606501206F
:102C300084F83500002094E73F8010F02DE9F0473C
:102C400004460D4616461F464FF00008D4F858902B
:102C500000BF94F83400012802D10220BDE8F087BB
:102C6000012084F8340000BF94F83500012825D1F4
:102C7000022084F83500002060653B463246294634
:102C80002046FEF726FC94F85C103F208840C9F8E7
:102C900008002068006840F0160021680860206C79
:102CA00028B12068006840F00800216808602068AA
:102CB000006840F001002168086006E000BF0020C5
:102CC00084F8340000BF4FF002084046C6E7000019
:102CD000F0B50C46002500220023002192E00126D9
:102CE00006FA01F504EA0502AA427DD1474E8F0893
:102CF00056F827308E07370F0F26BE403340444E1C
:102D0000B04201D1002623E0424EB04201D101265B
:102D10001EE0414EB04201D1022619E03F4EB042C2
:102D200001D1032614E03E4EB04201D104260FE04B
:102D30003C4EB04201D105260AE03B4EB04201D1E3
:102D4000062605E0394EB04201D1072600E00826EC
:102D50008F073F0FBE409E4222D1354E36689643C4
:102D6000334F3E603E1D366896433F1D3E603E1D1C
:102D7000366896433F1D3E603E1D366896433F1DB4
:102D80003E608E07370F0F2606FA07F31F4E8F0897
:102D900056F827609E431D4F4FEA910C47F82C6070
:102DA00006684FEA410C032707FA0CF7BE4306609A
:102DB000CF0800F1200656F827604F074FEAD76C7E
:102DC0000F2707FA0CF7BE434FEAD10C00F120079A
:102DD00047F82C60C6684FEA410C032707FA0CF746
:102DE000BE43C660466800E00BE001278F40BE434B
:102DF000466086684FEA410C032707FA0CF7BE438A
:102E00008660491C1029FFF46AAFF0BD0838014004
:102E1000000002400004024000080240000C024092
:102E2000001002400014024000180240001C024042
:102E3000003C014010B50446402C0FD0802C1BD123
:102E400080210F4800F034F938B900200D4908807E
:102E500005F018FF01200C49C8810EE04021084808
:102E600000F026F938B900200849088005F04EFF27
:102E700001200549088200E000BF00BF10BD00002E
:102E8000000402403A020020C00100203C02002061
:102E900010B5044604480068204020B10248046090
:102EA0002046FFF7C7FF10BD143C0140F8B50246AD
:102EB0000B460025002400200021DEE0012606FA52
:102EC00001F51E6806EA0504AC4275D11E7906F0CC
:102ED0000306012E04D01E7906F00306022E13D13C
:102EE00090684F000326BE40B0434F00DE68BE40EE
:102EF00030439060506801268E40B0431E79C6F37F
:102F000000168E40304350601E7906F00306032EF3
:102F100009D0D0684F000326BE40B0434F009E68E2
:102F2000BE403043D0601E7906F00306022E13D156
:102F3000CF0802F1200656F827004E07F70E0F269D
:102F4000BE40B0434F07FF0E1E69BE403043CF085E
:102F500002F1200646F8270010684F000326BE4005
:102F6000B0431E7906F003064F00BE4030431060A8
:102F70005E6806F08056B6F1805F7DD100BF002606
:102F80000096404E366846F480463E4F3E603E46D0
:102F9000366806F48046009600BF00BF3A4E8F08A0
:102FA00056F827008E07370F0F26BE40B043374E26
:102FB000B24202D1002624E05EE0354EB24201D199
:102FC00001261EE0334EB24201D1022619E0324EF4
:102FD000B24201D1032614E0304EB24201D10426A0
:102FE0000FE02F4EB24201D105260AE02D4EB2422B
:102FF00001D1062605E02C4EB24201D1072600E0A1
:1030000008268F073F0FBE4030431F4E8F0846F8FB
:103010002700264E3068A0435E6806F48036B6F579
:10302000803F00D12043214E3060361D3068A043E0
:103030005E6806F40036B6F5003F00D120431B4E13
:10304000361D3060361D3068A0435E6806F4801679
:10305000B6F5801F00D12043144E08363060361D6F
:103060003068A0435E6806F40016B6F5001F00D174
:1030700020430E4E0C363060491C1029FFF41EAF61
:10308000F8BD00004438024008380140000002400A
:103090000004024000080240000C02400010024000
:1030A0000014024000180240001C0240003C014095
:1030B000024613690B400BB1012000E0002070476D
:1030C0000AB1816101E00B04836170470148006827
:1030D000000C7047002004E00148006870470000C1
:1030E0003002002070B504460CB9012070BD4CF6CA
:1030F000CC402168086045F2555021680860D4E949
:10310000001048602168A0688860FFF7E5FF054669
:103110000BE0FFF7E1FF401B302806D92068C068AC
:1031200000F0030008B10320E0E72068C06800F069
:1031300003000028EDD14AF6AA202168086000208B
:10314000D4E701464AF6AA200A68106000207047BA
:10315000034800680349097808440149086070473A
:10316000300200203802002010B50A48006840F400
:103170000070084908600846006840F480600860F4
:10318000032000F0A1F80F2000F006F800F02AF864
:10319000002010BD003C024070B504460E48007887
:1031A0004FF47A71B1FBF0F00C490968B1FBF0F50E
:1031B000284600F03FFC08B1012070BD102C07D25A
:1031C00000222146501E00F041F80548046001E04D
:1031D0000120F2E70020F0E7380200200400002080
:1031E000340200207047000010B501460846002850
:1031F00017DB00F01F0301229A400B4B440943F8F0
:10320000242000BF00BF00BFBFF34F8F00BF00BF2F
:1032100000BF00BF00BF00BFBFF36F8F00BF00BF84
:1032200000BF00BF10BD000080E100E0014608467D
:10323000002809DB00F01F0301229A4043099B008C
:1032400003F1E023C3F8002100BF70472DE9F05FD0
:1032500080460D461646002706F044FE07463946CE
:103260002A46334601F00700C0F1070ABAF1040FFD
:1032700002D94FF0040A01E0C0F1070AD14600F17B
:10328000040ABAF1070F02D24FF0000A01E0A0F1E0
:10329000030AD4464FF0010A0AFA09FAAAF1010A10
:1032A0000AEA020A0AFA0CFA4FF0010B0BFA0CFBBD
:1032B000ABF1010B0BEA030B4AEA0B042146404633
:1032C00006F018FEBDE8F09F00BF00F00702064BB5
:1032D00019684FF6FF031940044B0B4343EA0221E0
:1032E000014B196000BF70470CED00E00000FA05CB
:1032F00070B504460D460CB9012070BD58480068F1
:1033000000F00700A84209D255490D700846006830
:1033100000F00700A84201D00120EEE7207800F07D
:10332000020002281DD1207800F00400042805D1F5
:103330004C48006840F4E0504A490860207800F0AA
:103340000800082805D14748006840F46040454916
:1033500008604448006820F0F000A1680843414933
:103360000860207800F00100A8B36068012807D148
:103370003C4808380068C0F34040B8B90120BCE7B9
:103380006068022802D06068032807D135480838F1
:103390000068C0F3406048B90120AEE73148083802
:1033A0000068C0F3400008B90120A6E72D48006876
:1033B00020F00300616808432A490860FFF78CFE8B
:1033C000064609E0FFF788FE801B41F288318842FB
:1033D00002D9032091E707E02248006800F00C00C2
:1033E0006168B0EB810FEDD11D48006800F0070067
:1033F000A84209D91A490D700846006800F0070074
:10340000A84201D0012078E7207800F004000428C9
:1034100007D11448006820F4E050E16808431149DE
:103420000860207800F00800082808D10D480068DE
:1034300020F46040216940EAC1000A49086000F0B8
:103440003FF808490968C1F30311074A515CC840B5
:103450000649086006480068FFF79EFE00204CE71A
:10346000003C02400838024014010108040000201A
:10347000340200200148006870470000040000206A
:1034800000B5FFF7F7FF04490968C1F38221034A39
:10349000515CC84000BD000008380240240101080A
:1034A00000B5FFF7E7FF04490968C1F34231034A59
:1034B000515CC84000BD00000838024024010108EA
:1034C0002DE9F047002400250026A1462548006884
:1034D00000F00C0020B1042805D008283AD105E0FE
:1034E000DFF8849039E0DFF8849036E01D48001F53
:1034F000006800F03F041B48001F006800F48000D3
:1035000078B11A481749091F0968C1F38811A0FB4F
:1035100001700146224600233846FCF7B9FE0546F5
:103520000EE011480F49091F0968C1F38811A0FB7B
:1035300001700146224600233846FCF7A9FE0546E5
:103540000848001F0068C0F30140401C4600B5FB5E
:10355000F6F902E0DFF8109000BF00BF4846BDE872
:10356000F0870000083802400024F40000127A00BE
:10357000F8B504460CB90120F8BD207800F0010030
:10358000002874D0F948006800F00C0004280DD021
:10359000F648006800F00C00082813D1F348001F1B
:1035A000006800F48000B0F5800F0BD1EF480838B8
:1035B0000068C0F34040002859D06068002856D108
:1035C0000120D9E700BF6068B0F5803F08D1E74827
:1035D0000838006840F48030E449083908601EE08B
:1035E0006068B0F5A02F0DD1E0480838006840F4BD
:1035F0008020DE49083908600846006840F48030C1
:1036000008600CE0D9480838006820F48030D749B9
:10361000083908600846006820F48020086000BF70
:10362000606890B1FFF758FD054606E0FFF754FDCE
:10363000401B642801D903209EE7CC480838006865
:10364000C0F340400028F1D011E0FFF745FD0546EA
:1036500006E0FFF741FD401B642801D903208BE7FA
:10366000C24808380068C0F340400028F1D12078F3
:1036700000F0020002285FD1BC48006800F00C0096
:1036800058B1BA48006800F00C0008281CD1B748AF
:10369000001F006800F48000B0B9B4480838006822
:1036A000C0F3400020B1E068012801D0012063E7A9
:1036B000AE480838006820F0F800216940EAC100EF
:1036C000AA490839086037E0E06800B30120A8493A
:1036D0000860FFF701FD054606E0FFF7FDFC401B13
:1036E000022801D9032047E7A04808380068C0F342
:1036F00040000028F1D09D480838006820F0F8000C
:10370000216940EAC10099490839086014E00020A5
:1037100097490860FFF7E0FC054606E0FFF7DCFC90
:10372000401B022801D9032026E79048083800688A
:10373000C0F340000028F1D1207800F008000828EC
:103740002CD16069A8B101208A490860FFF7C4FC48
:10375000054606E0FFF7C0FC401B022801D9032004
:103760000AE782486C300068C0F340000028F1D0BE
:1037700014E000207F490860FFF7AEFC054606E034
:10378000FFF7AAFC401B022801D90320F4E6774882
:103790006C300068C0F340000028F1D1207800F0C0
:1037A0000400042870D1002770483830006800F009
:1037B000805090B900BF002000906C4838300068FD
:1037C00040F080506949383108600846006800F0D0
:1037D0008050009000BF00BF01276748006800F4D8
:1037E0008070B0B96448006840F480706249086035
:1037F000FFF772FC054606E0FFF76EFC401B02284F
:1038000001D90320B8E65C48006800F48070002805
:10381000F2D000BFA068012808D154486830006881
:1038200040F001005149683108601DE0A06805289A
:103830000DD14E486830006840F004004B496831B3
:1038400008600846006840F0010008600CE0474846
:103850006830006820F0010044496831086008467B
:10386000006820F00400086000BFA068A8B1FFF75E
:1038700033FC054609E0FFF72FFC401B41F288317D
:10388000884202D9032077E626E03848683000688D
:10389000C0F340000028EED013E0FFF71DFC054602
:1038A00008E0FFF719FC401B41F28831884201D93A
:1038B000032061E62D4868300068C0F3400000280E
:1038C000EFD1012F07D129483830006820F080500F
:1038D00026493831086000BFA069002845D0234838
:1038E000006800F00C0008285DD0A069022845D1CE
:1038F00000201F490866FFF7EFFB054606E0FFF7CB
:10390000EBFB401B022801D9032035E61748083895
:103910000068C0F340600028F1D1D4E907010843F2
:10392000616A40EA81110122A06AC2EB500041EABB
:1039300000412C20005D41EA00600C49091F08602D
:1039400001200B490866FFF7C7FB054606E0FFF7B5
:10395000C3FB401B022801D903200DE603480838A9
:103960000068C0F340600028F1D049E00838024008
:1039700000004742800E474200700040002021496D
:103980000866FFF7A9FB054606E0FFF7A5FB401B0D
:10399000022801D90320EFE51B480068C0F340600E
:1039A0000028F2D12CE0A069012800D1E4E51648F6
:1039B000001D0668A069012820D006F48001E06996
:1039C00081421BD106F03F01206A814216D147F6A1
:1039D000C0703040616AB0EB811F0FD106F44031F6
:1039E0000122A06AC2EB5000B1EB004F06D106F0F5
:1039F00070612C20005DB1EB006F01D00120BBE5B0
:103A00000020B9E50000474200380240042808D1F0
:103A10004FF0E021096941F004014FF0E02211610B
:103A200007E04FF0E021096921F004014FF0E022A6
:103A30001161704770B504462546681EB0F1807F5D
:103A400001D301200FE0681E4FF0E02148610F21F3
:103A50004FF0FF3006F04EFA00204FF0E021886171
:103A600007200861002070BD7047704710B50346FD
:103A7000002200BF93F83C00012801D1022010BDB4
:103A8000012083F83C0000BF22F0FF00CC6840EA30
:103A9000040222F440708C6840EA040222F4806040
:103AA0004C6840EA040222F400600C6840EA040218
:103AB00022F480500C6940EA040222F400504C6960
:103AC00040EA040222F48040CC6940EA040218680B
:103AD000426400BF002083F83C0000BF00BFCEE777
:103AE00030B502460B4600BF92F83C00012801D1D8
:103AF000022030BD012082F83C0000BF022082F885
:103B00003D00106844681068816824F070041868EB
:103B1000044310684460184D1068A8421BD0106818
:103B2000B0F1804F17D0154D1068A84213D0144D36
:103B30001068A8420FD0134D1068A8420BD0124D48
:103B40001068A84207D0114D1068A84203D0104D4C
:103B50001068A84205D121F080015868014310681F
:103B60008160012082F83D0000BF002082F83C0007
:103B700000BF00BFBDE7000000000140000400409E
:103B800000080040000C00400004014000400140DB
:103B90000018004010B504460CB9012010BD94F87F
:103BA0003D0028B9002084F83C00204600F026F8AB
:103BB000022084F83D00211D206804F01FFE012032
:103BC00084F8460000BF84F83E0001213F200155E3
:103BD000402001554120015500BF00BF012084F85D
:103BE000420043200155442001554520015500BFA6
:103BF000012084F83D000020D0E7000038B50446DD
:103C000067492068884217D100BF002000906548AE
:103C1000006840F01000634908600846006800F042
:103C20001000009000BF00BF00220D213620FFF7DA
:103C30000DFB3620FFF7FAFA5B492068884217D15E
:103C400000BF002000905748006840F02000554910
:103C500008600846006800F02000009000BF00BF28
:103C6000002206213720FFF7F1FA3720FFF7DEFAAE
:103C70004E492068884217D100BF00200090494873
:103C8000006840F00800474908600846006800F0F6
:103C90000800009000BF00BF00220D213220FFF776
:103CA000D5FA3220FFF7C2FA41492068884217D17D
:103CB00000BF002000903B48006840F004003949F4
:103CC00008600846006800F00400009000BF00BFD4
:103CD00000220D211E20FFF7B9FA1E20FFF7A6FAD9
:103CE00034492068884217D100BF002000902D4839
:103CF000006840F002002B4908600846006800F0A8
:103D00000200009000BF00BF00220E211D20FFF71F
:103D10009DFA1D20FFF78AFA27492068884221D1A1
:103D200000BF002000901F48001D006840F0020006
:103D30001C49091D08600846006800F00200009058
:103D400000BF00BF00220C212B20FFF77FFA2B20A1
:103D5000FFF76CFA00220E212C20FFF777FA2C20B7
:103D6000FFF764FA2068B0F1804F17D100BF002040
:103D700000900C48006840F001000A4908600846BD
:103D8000006800F00100009000BF00BF00220E217B
:103D90001C20FFF75BFA1C20FFF748FA38BD000033
:103DA000001000404038024000140040000C004069
:103DB000000800400004004000040140014691F862
:103DC0003D00012801D001207047022081F83D000C
:103DD0000868C06840F001000B68D8601A4B08689A
:103DE00098421BD00868B0F1804F17D0174B086875
:103DF000984213D0164B086898420FD0154B0868AC
:103E000098420BD0144B0868984207D0134B0868AF
:103E1000984203D0124B086898420CD10868806819
:103E200000F00702062A0CD00868006840F0010084
:103E30000B68186005E00868006840F001000B6836
:103E400018600020C0E700000000014000040040AE
:103E500000080040000C0040000401400040014008
:103E60000018004001460868C06820F001000A6898
:103E7000D06000BF0868006A41F21112104050B9CA
:103E80000868006A9210104028B90868006820F09D
:103E900001000A68106000BF012081F83D00002089
:103EA00070472DE9F04104460D4600BF94F83C00F0
:103EB000012802D10220BDE8F081012084F83C00F5
:103EC00000BF022084F83D002068866826F077064F
:103ED00026F47F46206886602868502833D00CDCA2
:103EE000202850D004DC00284BD0102851D149E0C4
:103EF000302849D040284CD139E060282DD0702896
:103F000007D0B0F5805F03D0B0F5005F41D10DE080
:103F100040E0D5E902136A68206804F06FFD20686C
:103F2000866846F077062068866033E0D5E902139C
:103F30006A68206804F062FD2068806840F4804070
:103F40002168886026E0EA686968206804F046FE17
:103F50005021206804F05DFD1CE0EA686968206873
:103F600004F04FFE6021206804F053FD12E0EA687F
:103F70006968206804F032FE4021206804F049FDA1
:103F800008E000BF00BF00BF2968206804F041FDC1
:103F900000E000BF00BF012084F83D0000BF00200A
:103FA00084F83C0000BF00BF85E77047704710B53C
:103FB000044620680069C0F34000D8B12068C0689A
:103FC000C0F34000B0B16FF0020021680861012029
:103FD00020772068806900F0030018B12046FFF7C1
:103FE000E5FF05E0204600F0ADF8204600F0A0F91E
:103FF0000020207720680069C0F38000D8B12068D5
:10400000C068C0F38000B0B16FF00400216808619F
:10401000022020772068806900F4407018B12046A3
:10402000FFF7C4FF05E0204600F08CF8204600F0C2
:104030007FF90020207720680069C0F3C000D8B164
:104040002068C068C0F3C000B0B16FF008002168FC
:104050000861042020772068C06900F0030018B1CF
:104060002046FFF7A3FF05E0204600F06BF820464E
:1040700000F05EF90020207720680069C0F300108E
:10408000D8B12068C068C0F30010B0B16FF0100064
:1040900021680861082020772068C06900F440701A
:1040A00018B12046FFF782FF05E0204600F04AF8ED
:1040B000204600F03DF9002020772068006900F0DC
:1040C000010058B12068C06800F0010030B16FF005
:1040D000010021680861204600F04AFA2068006962
:1040E000C0F3C01058B12068C068C0F3C01030B130
:1040F0006FF08000216808612046FFF7B5FC20685A
:104100000069C0F3801058B12068C068C0F3801007
:1041100030B16FF0400021680861204600F014FBC8
:1041200020680069C0F3401058B12068C068C0F32F
:10413000401030B16FF02000216808612046FFF781
:1041400094FC10BD704770B504460D46164600BF7E
:1041500094F83C00012801D1022070BD012084F8B0
:104160003C0000BF36B1042E1BD0082E31D00C2EDF
:104170005ED145E02946206804F054FC206880693F
:1041800040F00800216888612068806920F0040000
:1041900021688861206880692969084321688861ED
:1041A00047E02946206804F075FC2068806940F4E7
:1041B0000060216888612068806920F4806021683F
:1041C000886120688069296940EA01202168886146
:1041D0002FE02946206804F09BFC2068C06940F06D
:1041E00008002168C8612068C06920F004002168C7
:1041F000C8612068C069296908432168C86118E05E
:104200002946206804F0C0FC2068C06940F40060C2
:104210002168C8612068C06920F480602168C86195
:104220002068C069296940EA01202168C86100E06E
:1042300000BF00BF00BF002084F83C0000BF00BFEB
:104240008BE710B504460CB9012010BD94F83D0071
:1042500028B9002084F83C00204600F025F8022010
:1042600084F83D00211D206804F0C8FA012084F87C
:10427000460000BF84F83E0001213F200155402048
:1042800001554120015500BF00BF012084F84200C4
:1042900043200155442001554520015500BF012010
:1042A00084F83D000020D0E710B586B004461D49D3
:1042B0002068884233D100BF00BF002000901A4818
:1042C000006840F00100184908600846006800F0E6
:1042D0000100009000BF00BF00BF00BF00BF002072
:1042E000009011481438006840F010000E4914394D
:1042F00008600846006800F01000009000BF00BF92
:1043000000BF4FF400500190022002900020039063
:1043100004900120059001A90448FEF7C7FD06B0EE
:1043200010BD00000000014044380240001002406F
:10433000704770472DE9F04104460D4616461F466A
:1043400015B994F83E000BE0042D02D13F20005D2A
:1043500006E0082D02D14020005D01E04120005D13
:10436000022801D1BDE8F08115B994F83E000BE0B8
:10437000042D02D13F20005D06E0082D02D140202F
:10438000005D01E04120005D012817D10EB907B1A1
:10439000E8E71DB9022084F83E0011E0042D03D1A6
:1043A00002213F2001550BE0082D03D102214020BE
:1043B000015505E002214120015501E00120D1E72E
:1043C00035B1042D1FD0082D38D00C2D6CD150E004
:1043D0005D49606AC1635D49606A01645C49606A05
:1043E000C164216801F134023B463146606AFEF740
:1043F00025FC08B10120B5E72068C06840F40070D2
:104400002168C86051E05049A06AC1634F49A06A61
:1044100001644F49A06AC164216801F138023B463A
:104420003146A06AFEF70AFC08B101209AE720682D
:10443000C06840F480602168C86036E04249E06AA4
:10444000C1634249E06A01644149E06AC16421688C
:1044500001F13C023B463146E06AFEF7EFFB08B152
:1044600001207FE72068C06840F400602168C860D0
:104470001BE03549206BC1633449206B016434492A
:10448000206BC164216801F140023B463146206B3C
:10449000FEF7D4FB08B1012064E72068C06840F44F
:1044A00080502168C86000E000BF00BF012229469B
:1044B000206804F00FFA27492068884203D0264973
:1044C0002068884201D1012000E0002028B1206846
:1044D000406C40F40040216848641E4920688842CE
:1044E0001BD02068B0F1804F17D01C49206888424B
:1044F00013D01B49206888420FD01A49206888428F
:104500000BD015492068884207D017492068884297
:1045100003D01649206888420DD12068806800F0D9
:104520000708B8F1060F0CD02068006840F00100C1
:104530002168086005E02068006840F001002168FB
:10454000086000200EE70000F78800085F89000877
:104550009F89000800000140000401400004004061
:1045600000080040000C00400040014000180040DE
:1045700030B585B0044667492068884204D1664852
:104580000088401C6449088000BF5021EFF311806F
:1045900081F31188BFF34F8FBFF36F8F00BF0546C4
:1045A0005E492068884271D15D48008808287BD226
:1045B000DFE800F00412223240505E6E00204C22F0
:1045C0001423CDE902200490CDE90003962302468E
:1045D000132105F0A5FB68E04C203A21392227235E
:1045E000CDE90132CDE903100020962302462621B1
:1045F000009005F095FB58E04C203A212622142328
:10460000CDE90132CDE9031000209623024639217D
:10461000009005F085FB48E04C203A2100220192F1
:10462000CDE902219623392100920490104605F02D
:1046300077FB3AE03920272126221423CDE90132E5
:10464000CDE903100020962302464C21009005F08E
:1046500067FB2AE0002039222723CDE902200490BD
:10466000CDE90003962302464C2105F059FB1CE0DE
:10467000002026221423CDE902200490CDE9000376
:10468000962302464C2105F04BFB0EE00EE00BE0BA
:1046900000200190029003900490962302464C2142
:1046A000009005F03DFB00E000BF00BF00BF85F3B8
:1046B000118800BF1B492068884204D11A4800882D
:1046C000401C1949088019492068884204D11848BB
:1046D0000088401C1649088016492068884204D189
:1046E00015480088401C14490880144920688842F5
:1046F00004D113480088401C114908802068B0F19B
:10470000804F04D10F480088401C0E49088005B036
:1047100030BD0000001000403E00002000140040AA
:104720000C000020000800403C0200200004004073
:104730007C010020000C00405E01002000040140CC
:10474000600100203A0200207047704770B50446AF
:10475000002520684069C0F3C01594F83D00212869
:104760000ED16DB12068406920F080002168486159
:10477000606B10B1606BFEF729F8204604F0B5FCC1
:1047800020684069C0F3801594F83E0022280ED1BD
:104790006DB12068406920F0400021684861A06B3D
:1047A00010B1A06BFEF712F8204604F073FC002055
:1047B00070BD70472DE9F84F0446206805682068F1
:1047C000C668206847694FF00009CA4605F00F091E
:1047D000B9F1000F0AD105F0200038B106F0200031
:1047E00020B1204604F08BFCBDE8F88FB9F1000F32
:1047F00072D007F0010018B906F4907000286BD051
:1048000005F0010030B106F4807018B1206C40F062
:104810000100206405F0040030B107F0010018B178
:10482000206C40F00200206405F0020030B107F077
:10483000010018B1206C40F00400206405F008006D
:1048400048B106F0200010B907F0010018B1206C43
:1048500040F008002064206C70B305F0200028B1FF
:1048600006F0200010B1204604F049FC20684069A1
:10487000C0F3801A206C00F0080010B9BAF1000FE4
:1048800023D0204604F006FC2068406900F0400078
:10489000402816D12068406920F040002168486116
:1048A000A06B50B15648A16B0865A06BFDF7E3FF04
:1048B00010B1A06B016D88470CE02046FFF779FF2F
:1048C00008E02046FFF775FF04E02046FFF771FF80
:1048D0000020206488E7FFE7206B012879D105F0EC
:1048E0001000002875D006F01000002871D000BF1D
:1048F00000200090206800680090206840680090C8
:1049000000BF00BF2068406900F04000402839D156
:10491000A06B006840681FFA80F8B8F1000F30D033
:10492000A08D40452DDDA4F82E80A06BC069B0F5A8
:10493000807F1FD02068C06820F480702168C86024
:104940002068406920F001002168486120684069C2
:1049500020F0400021684861202084F83E000020BB
:1049600020632068C06820F010002168C860A06B38
:10497000FDF72CFFA08DE28D801A81B22046FFF753
:10498000E4FE31E7A08DE18D401A1FFA80F8E08D3A
:10499000E8B1B8F1000F1AD02068C06820F4907018
:1049A0002168C8602068406920F0010021684861E2
:1049B000202084F83E00002020632068C06820F09A
:1049C00010002168C86041462046FFF7BEFE0BE795
:1049D000FFE705F0800030B106F0800018B12046F6
:1049E00004F04EFD00E705F0400030B106F0400055
:1049F00018B1204604F069FBF6E600BFF4E60000BB
:104A0000658F000810B504460CB9012010BDA069DF
:104A100000B100E000BF94F83D0028B9002084F800
:104A20003C00204600F028F8242084F83D0020684F
:104A3000C06820F400502168C860204604F0BEFB26
:104A40002068006920F4904021680861206840696E
:104A500020F02A00216848612068C06840F40050B6
:104A60002168C86000202064202084F83D0084F87C
:104A70003E000020CAE7000010B586B004461421AD
:104A800001A8FBF75DFCFE49206888427CD100BF8D
:104A900000200090FB48006840F01000F9490860D1
:104AA0000846006800F01000009000BF00BF00BF83
:104AB00000200090F3481438006840F00100F149EC
:104AC000143908600846006800F00100009000BF3B
:104AD00000BF48150190022002900120039003209E
:104AE00004900720059001A9E748FEF7DFF94FF48D
:104AF0008060019002200290002003900320049027
:104B00000720059001A9E048FEF7D0F9DF48E04909
:104B100008604FF0006048600021DD488160C1609E
:104B20004FF480610161002141618161C1610162D5
:104B30004162FEF70DF800BFD548A063846300BF53
:104B4000D2487830D34908604FF000604860402177
:104B5000D04881600021C1604FF480610161002173
:104B600041618161C16101624162FDF7F1FF00BFF6
:104B7000C8486063846300BF082207212520FEF730
:104B800065FB2520FEF752FBC349206888427DD192
:104B900000BF00200090BB48001F006840F40030B8
:104BA000B849091F08600846006800F4003000900A
:104BB00000BF00BF00BF00200090B248143800685A
:104BC00040F00100AF49143908600846006800F061
:104BD0000100009000BF00BF04200190022002905D
:104BE00001200390032004900720059001A9A64806
:104BF000FEF75CF90820019002200290002003904B
:104C0000032004900720059001A99F48FEF74EF964
:104C1000A248A34908604FF0006048600021A04806
:104C20008160C1604FF48061016100214161816157
:104C3000C1614FF44031016200214162FDF788FFFC
:104C400000BF9748A063846300BF9448183095491B
:104C500008604FF000604860402192488160002168
:104C6000C1604FF480610161002141618161C161D6
:104C70004FF44031016200214162FDF769FF00BF3E
:104C800088486063846300BF072200E006E01146A5
:104C90002620FEF7DBFA2620FEF7C8FA82492068B4
:104CA00088427DD100BF002000907648001F006838
:104CB00040F480207349091F08600846006800F42A
:104CC0008020009000BF00BF00BF002000906D4812
:104CD0001438006840F002006A4914390860084638
:104CE000006800F00200009000BF00BF08150190AE
:104CF00002200290012003900320049007200590D9
:104D000001A96A48FEF7D2F84FF400600190022032
:104D1000029000200390032004900720059001A931
:104D20006248FEF7C3F85D486038614908604FF09B
:104D30000060486000215E488160C1604FF480617E
:104D40000161002141618161C16101624162FDF740
:104D5000FFFE00BF5648A063846300BF4F48303851
:104D6000544908604FF0006048604021514881601C
:104D70000021C1604FF480610161002141618161C6
:104D8000C16101624162FDF7E3FE00BF4948606313
:104D9000846300BF062207212720FEF757FA00E0B0
:104DA00002E02720FEF742FA43492068884265D195
:104DB00000BF002000903348001F006840F400202E
:104DC0003049091F08600846006800F40020009080
:104DD00000BF00BF00BF002000902A4814380068C0
:104DE00040F001002749143908600846006800F0C7
:104DF0000100009000BF00BF03200190022002903C
:104E000001200390032004900820059001A91E486A
:104E1000FEF74CF8214848382849086040054860AA
:104E2000002126488160C1604FF48061016100214A
:104E300041618161C16101624162FDF789FE00BF8C
:104E40001E48A063846300BF144818381C490860DA
:104E50004FF0006048604021194881600021C16026
:104E60004FF480610161002141618161C161016292
:104E70004162FDF76DFE00BF114823E02DE0000008
:104E800000100140443802400000024040640240EB
:104E9000501B0020B01B00200044004088600240EE
:104EA000101C0020701C002000480040000402403C
:104EB000D01C0020301D0020004C0040901D002020
:104EC000F01D00206063846300BF0022114634207F
:104ED000FEF7BCF93420FEF7A9F949492068884259
:104EE0007ED100BF002000904648006840F480104A
:104EF000444908600846006800F48010009000BF34
:104F000000BF00BF002000903E481038006840F00D
:104F100004003C49103908600846006800F00400AD
:104F2000009000BF00BF00BF00200090084600684E
:104F300040F0080008600846006800F00800009093
:104F400000BF00BF8814019002200290012003904E
:104F5000032004900820059001A92B48FDF7A6FF27
:104F6000042001900220029001200390032004906D
:104F70000820059001A92548FDF798FF24482549F8
:104F80000860C0054860002122488160C1604FF47C
:104F900080610161002141618161C1610162416201
:104FA000FDF7D6FD00BF1B48A063846300BF18480F
:104FB000A830194908604FF0006048604021164849
:104FC00081600021C1604FF4806101610021416175
:104FD0008161C16101624162FDF7BAFD00BF00E07D
:104FE0000BE00D486063846300BF00220721352079
:104FF000FEF72CF93520FEF719F906B010BD0000B8
:10500000005000404038024000080240000C0240BE
:1050100010600240501E0020B01E002070B50446F3
:105020000D46164694F83E00202816D105B10EB95B
:10503000012070BD00BF94F83C00012801D102207E
:10504000F7E7012084F83C0000BF002020633246CF
:105050002946204604F0C8F9EBE70220E9E770474B
:1050600070472DE9F84F04460E46174699464FF013
:10507000000A94F83D0020285AD106B117B9012042
:10508000BDE8F88F00BF94F83C00012801D1022050
:10509000F6E7012084F83C0000BF002020642120B6
:1050A00084F83D00FEF718F88246A784E784A068DC
:1050B000B0F5805F04D1206910B90025B04602E048
:1050C00035464FF0000800BF002084F83C0000BFC8
:1050D0001BE05346002280212046CDF8009004F0CA
:1050E000FFF908B10320CBE745B9B8F80000C0F3D9
:1050F00008002168486008F1020803E02878216868
:1051000048606D1CE08C401EE084E08C0028E0D1FB
:105110005346002240212046CDF8009004F0E0F9EB
:1051200008B10320ACE7202084F83D000020A7E769
:105130000220A5E7F7B50446154694F83D0020285F
:105140003DD1019800B10DB90120FEBD00BF94F81A
:105150003C00012801D10220F7E7012084F83C003F
:1051600000BF01982062A584E584002020642120EE
:1051700084F83D001348616BC8631348616B086491
:105180001248616BC8640020616B086501AE23683A
:105190001A1D31682B46606BFDF750FD6FF0400023
:1051A0002168086000BF002084F83C0000BF206830
:1051B000406940F08000216848610020C5E7022076
:1051C000C3E700005190000887900008798F00081D
:1051D000154A0168914202D10121144A1170144A02
:1051E0000168914202D10121124A1170124A0168EC
:1051F000914202D10121114A1170114A0168914274
:1052000002D101210F4A11700F4A0168914202D167
:1052100001210E4A11700E4A0168914202D101210A
:105220000C4A117070470000001001404E0200202F
:105230000044004052020020004800405602002076
:10524000004C004046020020005000404A0200206E
:10525000001401405A02002070474FF4E13004F07E
:10526000D3FB04E007F09EFA012009F0EBFEF9E71A
:105270004FF4E13004F0B2FA4FF47A7009F0E2FE34
:1052800004E007F0BFFB012009F0DCFEF9E70000B5
:10529000002500244FF4FA7009F0D4FE00BF07F097
:1052A0000BFD38B14F480078401EC0B24D49087020
:1052B0000028F4D103204B4908700F224A490420EA
:1052C00004F0C6FC1E2009F0BDFE00BF0F224749B6
:1052D000042004F0BDFC1E2009F0B4FE4448007D0B
:1052E00038B940480078401EC0B23E4908700028D6
:1052F000ECD103203B49087000BF0F223D49042038
:1053000004F0A6FC1E2009F09DFE3B48007838B949
:1053100034480078401EC0B2324908700028ECD1F1
:1053200003203049087000BF0F223449042004F0E4
:105330008FFC1E2009F086FE04F0F0FF38B12948EA
:105340000078401EC0B2274908700028ECD15321D4
:1053500042F20F7003F0A6FC40F2473142F20F70A8
:1053600003F0E4FC40F28F6142F20F7003F03CFD69
:10537000FCF7CCFA4FF47A7009F064FE31E001F0EA
:105380007FF900F09DFF00F0C3FA00F093FC00F0FD
:1053900087FA01F083F801F0B9F800F07DFB00F026
:1053A000BBF813480088042809DA1148008800284F
:1053B00005DD002401251249086802F081FA012D5B
:1053C0000CD10A2C08DD0020094988610024002541
:1053D0000B49086802F074FA601CC4B2012009F09D
:1053E00031FECCE79E01002044030108530301086D
:1053F0002000002062030108A401002071030108BD
:10540000C001002010B50446012C3AD13C49487433
:105410000C223C49042004F01BFC3B48407810B3AC
:1054200037480078012804D0022809D0032815D174
:105430000DE00420354908803148406848600EE09E
:105440000520324908802E488068886007E00620E1
:105450002E4908802A488089888100E000BF00BF6B
:10546000C82009F0EFFD002210212948FDF728FE91
:10547000C82009F0E7FD0020214948740120087484
:105480003CE0022C3AD101201D4948740C221D49F0
:10549000042004F0DDFB1C48007810B318480078A5
:1054A000012804D0022809D0032815D10DE00420DA
:1054B000164908801248406848600EE005201349EC
:1054C00008800F488068886007E006200F49088040
:1054D0000B488089888100E000BF00BFC82009F028
:1054E000B1FD012210210A48FDF7EAFDC82009F0AC
:1054F000A9FD0020024948740220087410BD000074
:1055000064010020240201080C0200202000002079
:105510000000024000BFFEE710B5052009F092FD33
:10552000CF48C0780A2807D0CD484078042803D057
:10553000CB488078042829D1CA480078002824D193
:105540000120C849087003F0BFFBC548C0780A288D
:1055500002D10020C249C870C1484078042802D155
:105560000020BF494870BE488078042802D100203E
:10557000BB4988700020BC4908800C22BB4904202C
:1055800004F066FB052009F05DFD05E1B448C07834
:10559000092807D0B2484078032803D0B048807863
:1055A000032829D1AF4800780028EED10120AD4969
:1055B000087003F089FBAA48C078092802D10020AE
:1055C000A749C870A6484078032802D10020A44902
:1055D0004870A3488078032802D10020A049887031
:1055E0000020A14908800C22A149042004F030FBCE
:1055F000052009F027FDCFE09E48C07C02280BD093
:105600009C48C07C092807D09A48C07C0A2803D04F
:105610009848C07C0B281DD1924800780028B4D14E
:105620000120954988740AF03DFA944908600120E8
:105630008C49087003F048FB00208B4908808D4995
:10564000C8740C228E49042004F002FB052009F0E6
:10565000F9FCA1E08748C07C0C2816D1814800786D
:10566000002892D101207F49087003F02DFB002013
:105670007D4908807F49C8740C228249042004F0C7
:10568000E7FA052009F0DEFC86E07A48C07C0328B2
:1056900016D17448007800287ED101207149087025
:1056A00003F012FB0020704908807249C8740C2274
:1056B0007549042004F0CCFA052009F0C3FC6BE026
:1056C0006C48C07C042816D166480078002863D155
:1056D00001206449087003F0F7FA0020624908804D
:1056E0006449C8740C226949042004F0B1FA052009
:1056F00009F0A8FC50E05F48C07C062816D1594844
:105700000078002848D101205649087003F0DCFADF
:105710000020554908805749C8740C225C49042070
:1057200004F096FA052009F08DFC35E05148C07C64
:10573000072818D14B48007870BB012049490870F0
:1057400003F0C2FA0020484908804A49C8744A4810
:10575000807C08BB0C224F49042004F079FA052014
:1057600009F070FC18E04348C07C082814D13D487B
:10577000007888B901203B49087003F0A5FA0020A1
:10578000394908803B49C8740C224349042004F07D
:105790005FFA052009F056FC32480078B8B1354868
:1057A000C07CA0B930480088B0F5C87F0FDD00206C
:1057B0002C49087003F090FA00202B4908800C2235
:1057C0003649042004F044FA052009F03BFC254842
:1057D0000078E8B12248C07828B12148407810B15B
:1057E0001F488078A0B920480088B0F5C87F0FDD39
:1057F00000201C49087003F06FFA00201A49088045
:105800000C222649042004F023FA052009F01AFC92
:1058100015480088B0F5C87F0FDD002011490870D9
:1058200003F05AFA0020104908800C221B4904207A
:1058300004F00EFA052009F005FC0E48C07C012892
:105840000DD10D48807C50B10AF02CF90B49096844
:10585000401AB0F5FA6F02D300200749887410BDD2
:10586000A40100209D0100207C0100201C040108EF
:1058700010040108200000206401002080010020A5
:1058800070040108280401083404010840040108D8
:105890004C040108580401086404010804040108C8
:1058A00010B51748007D98B11648007880B91548A2
:1058B000007808B9012000E00020124908700C228D
:1058C0001149042004F0C4F9142009F0BBFB15E0D1
:1058D0000B48007D90B90B48007878B109480078F2
:1058E00008B9012000E00020064908700C22074991
:1058F000042004F0ADF9142009F0A4FB10BD000051
:10590000C00100208C010020480201083C0201086F
:1059100010B55448C07C54490978884203D0514896
:10592000C07C5149087000244E48C07CB8B14F4833
:105930000078401C4D49087008460078022811DDA7
:1059400000200870012400BF01204949086032206E
:1059500009F078FB00204749C1F8B00202E00020BE
:105960004249087064B3002400203E49C87442488C
:105970000078022803D101204049087020E03E4809
:10598000007801281CD13E480078C8B902F0F2FB2B
:10599000052009F057FB0B223A49042004F058F97E
:1059A000052009F04FFB0C223749042004F050F980
:1059B000052009F047FB0020304908703049087085
:1059C0002E480078012802D0022847D12BE02F482A
:1059D000008838BB2E48007820BB01202C49087075
:1059E00000202C49088003F02DFA0120244908707A
:1059F0002149087002F0BEFB052009F023FB0B22B1
:105A00002049042004F024F9052009F01BFB0C2296
:105A10001D49042004F01CF9052009F013FB0220A5
:105A2000164908701BE01B480088192815DB03F095
:105A300011FA0020174908801549087010480078AD
:105A4000012807D102F096FB052009F0FBFA00209F
:105A50000B49087000200949087000E000BF00BF32
:105A600010BD0000C0010020910100209001002025
:105A7000B0824042008040425C0100208E01002044
:105A80008F010020A6030108D40301085E01002055
:105A9000620100206001002010B57A4800787A4940
:105AA0000978884205D17748407878490978884252
:105AB0004ED0744800787449087072484078734931
:105AC000087070480078002843D06E48407800285D
:105AD0003FD00C226E49042004F0BAF80A2009F0E5
